:100000000C942E000C944B000C944B000C944B0061
:100010000C944B000C944B000C944B000C94160564
:100020000C944B000C944B000C944B000C944B0024
:100030000C944B000C944B000C944B000C944B0014
:100040000C944B000C944B000C944B000C944B0004
:100050000C944B000C944B000C944B0011241FBECD
:10006000CFEFD0E1DEBFCDBF11E0A0E0B1E0E6E42C
:10007000F2E102C005900D92AA32B107D9F721E052
:10008000AAE2B1E001C01D92AB33B207E1F70E94D2
:1000900045070C9421090C940000CF9380E00E9446
:1000A000D400C82F0E94B00460E080E00E941B03CF
:1000B00080E091E00E940D0461E080E00E941B035B
:1000C00084EB90E08C1B91090E9432048FE39CE941
:1000D0000197F1F700C00000CF910895D0E0C0E093
:1000E000EE24E394F12C02E010E0C8018E0D9F1D78
:1000F000C80FD91F0E94B00460E080E00E941B037B
:1001000087E091E00E940D0461E080E00E941B0303
:10011000CE010E9432046AE582E00E946E05C6307C
:10012000D10534F4EE24E394F12C02E010E0DDCFAD
:10013000C43BD105D4F2EE24EA94FE2C0EEF1FEF5F
:10014000D4CFCF93C82F813009F46195062E000CCF
:10015000770B880B990B0E9428082AE939E949E9AD
:100160005EE30E94B40820E030E04EEF52E40E94CB
:1001700084070E94F0076E39710514F06DE970E094
:100180006136710514F461E670E08C2FCF910C9408
:100190006E05EAE7F0E0808187688083ECE7F0E0B5
:1001A000808180668083089590917C00987F9093F1
:1001B0007C0090917C00892B80937C0080917A0058
:1001C000806480937A0080917A0086FDFCCF8091D4
:1001D000790008958DB18F7C8DB985E08A95F1F70E
:1001E00000006D9A759885E08A95F1F700006C9A89
:1001F000749885E08A95F1F7000008956C9885E081
:100200008A95F1F700006D9885E08A95F1F7000076
:1002100008956D9885E08A95F1F7000065990DC005
:100220006C9885E08A95F1F700006C9A749885E0E7
:100230008A95F1F70000659BF3CF6C9808956C9850
:1002400085E08A95F1F700006C9A749885E08A95AC
:10025000F1F7000008951F93CF93DF93C82FD62F97
:10026000142F0E9409010E94EA0087E013C06D98D4
:1002700095E09A95F1F700006C9895E09A95F1F762
:1002800000006C9A749895E09A95F1F70000CC0FF5
:10029000815029F0C6FDEBCF6D9A7598E9CF6D9A24
:1002A000759885E08A95F1F700006C9895E09A952D
:1002B000F1F700006C9A749885E08A95F1F70000D8
:1002C0006D9895E09A95F1F700006C9865994BC090
:1002D00085E08A95F1F700006C9A749895E09A95FC
:1002E000F1F7000088E014C06D9A759895E09A9532
:1002F000F1F700006C9895E09A95F1F700006C9A80
:10030000749895E09A95F1F70000DD0F815021F087
:10031000D7FFEACF6D98EACF6D9885E08A95F1F71F
:1003200000006C9865991AC095E09A95F1F7000065
:100330006C9A749885E08A95F1F70000112351F0CA
:100340006C9895E09A95F1F700006D9885E08A9594
:10035000F1F70000DF91CF911F9108958CE191E0BA
:100360000E940D04FFCF80E191E00E940D04FFCFB9
:10037000FC016623D1F14FEF460F50E04F5F5F4F16
:10038000480F591F908128E016C06D9A759885E036
:100390008A95F1F700006C9885E08A95F1F70000E6
:1003A0006C9A749885E08A95F1F700009081990F16
:1003B0009083215021F097FFE8CF6D98E8CF3196D8
:1003C0006D9885E08A95F1F700006C98659918C0E2
:1003D00085E08A95F1F700006C9A749885E08A951B
:1003E000F1F700004E175F0769F66C9885E08A9573
:1003F000F1F700006D9885E08A95F1F70000089507
:1004000089E191E00E940D04FFCF0F931F93CF93DA
:10041000DF93082FEB01142F0E94EA0087E013C03E
:100420006D9895E09A95F1F700006C9895E09A9593
:10043000F1F700006C9A749895E09A95F1F7000036
:10044000000F815029F006FDEBCF6D9A7598E9CF2A
:100450006D9885E08A95F1F700006C9895E09A9583
:10046000F1F700006C9A749885E08A95F1F7000026
:100470006D9895E09A95F1F700006C9865995AC0CF
:1004800085E08A95F1F700006C9A749895E09A954A
:10049000F1F700006D9885E08A95F1F700001123CF
:1004A000B1F12FEF210F30E02F5F3F4F2C0F3D1F99
:1004B00098E08881880F88836C9885E08A95F1F7A9
:1004C0000000659B03C088818160888385E08A95F0
:1004D000F1F700006C9A749885E08A95F1F70000B6
:1004E000915039F76D9A759895E09A95F1F700005B
:1004F0006C9885E08A95F1F700006C9A749895E005
:100500009A95F1F7000021962C173D0789F685E0B2
:100510008A95F1F700006C9895E09A95F1F7000044
:100520006D9885E08A95F1F70000DF91CF911F91DA
:100530000F91089581E291E00E940D04FFCFCF93C7
:10054000DF931F92CDB7DEB7498340E00E942B01B5
:1005500061E0CE0101960E94B8010F90DF91CF912A
:1005600008951F93CF93DF931F92CDB7DEB7182F57
:1005700041E00E942B0141E0BE016F5F7F4F812F60
:100580000E94050289810F90DF91CF911F910895FC
:1005900061E08CE10C94B10263E08CE10C94B10257
:1005A00065E08CE10C94B1028AE08A95F1F700C015
:1005B000449A8AE08A95F1F700C044988AE08A95C7
:1005C000F1F700C00895F89482B98AE08A95F1F7AE
:1005D00000C0449A8AE08A95F1F700C044988AE006
:1005E0008A95F1F700C0789408958F98F89482B9AD
:1005F0008AE08A95F1F700C0449A8AE08A95F1F77B
:1006000000C044988AE08A95F1F700C07894089574
:100610008F9AF89482B98AE08A95F1F700C0449ADB
:100620008AE08A95F1F700C044988AE08A95F1F74C
:1006300000C078940895803110F4623008F0089575
:100640006E5F6295660F660F607C860F8F98F894D8
:1006500082B98AE08A95F1F700C0449A8AE08A95C7
:10066000F1F700C044988AE08A95F1F700C07894C9
:1006700085EC8A95F1F7000008953C9A879A8FEFF0
:1006800081B98FE19EE40197F1F700C000008F98D7
:10069000F89488E382B99AE09A95F1F700C0449AF9
:1006A000EAE0EA95F1F700C04498FAE0FA95F1F72C
:1006B00000C07894EFE7F2E03197F1F700C0000056
:1006C0008F98F89482B9FAE0FA95F1F700C0449A4D
:1006D0009AE09A95F1F700C04498EAE0EA95F1F7BC
:1006E00000C07894EFE7F2E03197F1F700C0000026
:1006F0008F98F89482B9FAE0FA95F1F700C0449A1D
:100700009AE09A95F1F700C04498EAE0EA95F1F78B
:1007100000C07894EFE7F2E03197F1F700C00000F5
:100720008F98F89498E092B9FAE0FA95F1F700C042
:10073000449A9AE09A95F1F700C04498EAE0EA9565
:10074000F1F700C07894EFE7F2E03197F1F700C0DD
:1007500000008F98F89491E092B9FAE0FA95F1F7D9
:1007600000C0449A9AE09A95F1F700C04498EAE0F4
:10077000EA95F1F700C07894EFE7FEE33197F1F7DF
:1007800000C000008F98F89496E092B9FAE0FA95CC
:10079000F1F700C0449A9AE09A95F1F700C04498A6
:1007A000EAE0EA95F1F700C07894EFE7F2E03197DC
:1007B000F1F700C000008F98F89482B9FAE0FA953A
:1007C000F1F700C0449A8AE08A95F1F700C0449896
:1007D0009AE09A95F1F700C07894EFE8F1E031974C
:1007E000F1F700C000008F98F8948CE082B9FAE02D
:1007F000FA95F1F700C0449A8AE08A95F1F700C0B3
:1008000044989AE09A95F1F700C07894EFE8F1E007
:100810003197F1F700C000000895DC019C91992305
:1008200001F120E08F9AF89492B98AE08A95F1F765
:1008300000C0449A9AE09A95F1F700C044988AE083
:100840008A95F1F700C078948FE792E00197F1F76D
:1008500000C000002F5FFD01E20FF11D908191119A
:10086000E1CF08951F93CF93DF939C01892B09F467
:100870005AC045E011E0EFE0F7E2CAE0D0E0C9017C
:10088000BF016F5F7F4F0E945507662349F1E21752
:10089000F30770F5605D8F9AF89462B9BAE0BA9583
:1008A000F1F700C0449A2AE02A95F1F700C0449875
:1008B000AAE0AA95F1F700C07894AFE7B2E01197EB
:1008C000F1F700C0000010E09C01CF01BE010E94C2
:1008D0006907FB01415099F6DF91CF911F9108956F
:1008E000E217F30718F41111EFCFD4CF1111EDCFA8
:1008F000605D8F9AF89462B9BAE0BA95F1F700C0DA
:10090000449A8AE08A95F1F700C044989AE09A9553
:10091000F1F700C07894AFE7B2E01197F1F700C0AB
:10092000000010E0D2CF8F9AF89480E382B92AE0D9
:100930002A95F1F700C0449A8AE08A95F1F700C041
:1009400044989AE09A95F1F700C07894AFE7B2E046
:100950001197F1F700C00000DF91CF911F9108952A
:100960008F98F89481E082B98AE08A95F1F700C007
:10097000449A9AE09A95F1F700C044988AE08A95E3
:10098000F1F700C078948FE79EE30197F1F700C07C
:10099000000008955D9A5C980895382F262F4FEF38
:1009A0006403C001112464E670E00E9469073111FC
:1009B00007C06093B300121664F45C9A5D980895C2
:1009C00067BD12161CF45E9A5F9808955F9A5E9850
:1009D00008950C94CA04CF93DF93C3EBD0E0188240
:1009E0000E94CA0417BC5F9A5E9884B1806984B97A
:1009F0008AB1806F8AB9E0EBF0E0808188668083FD
:100A000080818260808384B5886684BD84B582607D
:100A100084BD8AE087BD8883DF91CF9108955C9A79
:100A20005D982C9A5F9A5E982F9A08951F920F9264
:100A30000FB60F9211242F933F934F935F938F9391
:100A40009F93EF93FF9340912A01542F5695852F42
:100A500090E021E030E001C0220F5A95EAF740FD16
:100A600027C04091880050918900880F991FFC0190
:100A7000ED5CFE4F80819181840F951F90938900DA
:100A80008093880088B1282B28B980912A018F5F34
:100A9000877080932A01FF91EF919F918F915F91D1
:100AA0004F913F912F910F900FBE0F901F9018956F
:100AB0004091880050918900880F991FFC01E55DE5
:100AC000FE4F80819181840F951F909389008093C0
:100AD000880088B12095282328B9D7CF90E02AE054
:100AE000629FB00111246C53764F880F991FFC014F
:100AF000ED5CFE4F71836083855D9E4F24ED30E396
:100B0000261B370BFC01318320830895A3E3B1E05A
:100B100024EC39E011963C932E93EBE2F1E080E176
:100B200097E29183808313963C932E93129793833D
:100B3000828315963C932E931497958384831796FE
:100B40003C932E9316979783868387B18F6087B9DE
:100B5000E1E8F0E01082808182608083EFE6F0E0DF
:100B6000808182608083789408958CB18095881FFD
:100B70008827881F0895282F30E08E3010F080E0FD
:100B80000895F901EA53FA4F0C947D07E305E30554
:100B9000EE05EE05F905FE05FE0500060006000659
:100BA0000B06D405D405DF0583B190E02950310947
:100BB00002C0959587952A95E2F78170089583B1D3
:100BC0008695817008952CB130E0A90102C0559539
:100BD00047958A95E2F7CA018170089582B390E043
:100BE0002F5F3F4F02C0959587952A95E2F7817058
:100BF00008958CB186FB882780F9089523B1E4CF4E
:100C000086B190E02250310902C0959587952A95CA
:100C1000E2F78170089583B181700895282F30E044
:100C20008E30B0F4F901E95EF94F0C947D07380677
:100C300038064406440652066406640656065606FE
:100C400056067006290629062506611165C02198F9
:100C500008952950310981E090E001C0880F2A955C
:100C6000EAF794B1662309F43FC0892B84B908954B
:100C700021E030E001C0220F8A95EAF78DB16623AA
:100C8000C9F1282B2DB908952F5F3F4F81E090E0E7
:100C900001C0880F2A95EAF793B3662379F1892B6F
:100CA00083BB0895662391F16E9A0895225031090D
:100CB00081E090E001C0880F2A95EAF797B166239A
:100CC00009F1892B87B9089521E030E001C0220F96
:100CD0008A95EAF784B16623D9F0282B24B90895C0
:100CE000662331F0209A08958095892384B9089568
:100CF00020980895209528232DB90895809589235B
:100D000083BB08958095892387B908956E980895C7
:100D10002095282324B90895219A0895282F30E09A
:100D20008E30B0F4F901E956F94F0C947D07B806FE
:100D3000B806C406C406D206E406E406D606D606FD
:100D4000D606F006A906A906A506611165C0299870
:100D500008952950310981E090E001C0880F2A955B
:100D6000EAF795B1662309F43FC0892B85B9089548
:100D700021E030E001C0220F8A95EAF78EB16623A8
:100D8000C9F1282B2EB908952F5F3F4F81E090E0E5
:100D900001C0880F2A95EAF794B3662379F1892B6D
:100DA00084BB0895662391F1769A08952250310903
:100DB00081E090E001C0880F2A95EAF798B1662398
:100DC00009F1892B88B9089521E030E001C0220F94
:100DD0008A95EAF785B16623D9F0282B25B90895BD
:100DE000662331F0289A08958095892385B908955E
:100DF00028980895209528232EB908958095892351
:100E000084BB08958095892388B9089576980895BC
:100E10002095282325B90895299A0895811104C0A1
:100E2000613031F0A0980895613021F0A1980895C3
:100E3000A09A0895A19A0895882311F0A19A08957F
:100E4000A09A0895882311F0A1980895A098089574
:100E5000529A83B3836083BB779A0E94C9000E9431
:100E60003D030E9486050E94EB0441E06AE28CE1AA
:100E70000E949F022FEF81EE94E02150804090402D
:100E8000E1F700C000000C9409010E9428070E94AD
:100E9000C9000E94EB0460E081E00E94A10060E0D4
:100EA00080E00E94A1000E946E00AA1BBB1B51E1C2
:100EB00007C0AA1FBB1FA617B70710F0A61BB70BCA
:100EC000881F991F5A95A9F780959095BC01CD016F
:100ED000089597FB072E16F4009407D077FD09D0EC
:100EE0000E94550707FC05D03EF4909581959F4FD1
:100EF0000895709561957F4F0895EE0FFF1F05903F
:100F0000F491E02D09945058BB27AA270E949B0713
:100F10000C947A080E946C0838F00E94730820F044
:100F200039F49F3F19F426F40C9469080EF4E09507
:100F3000E7FB0C946308E92F0E948B0858F3BA175B
:100F4000620773078407950720F079F4A6F50C94DF
:100F5000AD080EF4E0950B2EBA2FA02D0B01B901B0
:100F600090010C01CA01A0011124FF27591B99F01F
:100F7000593F50F4503E68F11A16F040A22F232F2B
:100F8000342F4427585FF3CF469537952795A7957B
:100F9000F0405395C9F77EF41F16BA0B620B730B22
:100FA000840BBAF09150A1F0FF0FBB1F661F771F93
:100FB000881FC2F70EC0BA0F621F731F841F48F448
:100FC000879577956795B795F7959E3F08F0B0CFD1
:100FD0009395880F08F09927EE0F979587950895B8
:100FE0000E94F7076894B1110C94AE0808950E940E
:100FF000930888F09F5798F0B92F9927B751B0F010
:10100000E1F0660F771F881F991F1AF0BA95C9F78C
:1010100014C0B13091F00E94AD08B1E008950C9475
:10102000AD08672F782F8827B85F39F0B93FCCF328
:10103000869577956795B395D9F73EF49095809509
:10104000709561957F4F8F4F9F4F0895E89409C029
:1010500097FB3EF490958095709561957F4F8F4FEB
:101060009F4F9923A9F0F92F96E9BB279395F69501
:10107000879577956795B795F111F8CFFAF4BB0F7F
:1010800011F460FF1BC06F5F7F4F8F4F9F4F16C0E3
:10109000882311F096E911C0772321F09EE8872F6D
:1010A000762F05C0662371F096E8862F70E060E029
:1010B0002AF09A95660F771F881FDAF7880F9695A2
:1010C000879597F9089597F99F6780E870E060E049
:1010D00008959FEF80EC089500240A9416161706D1
:1010E00018060906089500240A9412161306140619
:1010F00005060895092E0394000C11F4882352F07C
:10110000BB0F40F4BF2B11F460FF04C06F5F7F4F33
:101110008F4F9F4F089557FD9058440F551F59F01A
:101120005F3F71F04795880F97FB991F61F09F3FD4
:1011300079F087950895121613061406551FF2CFFD
:101140004695F1DF08C0161617061806991FF1CF4D
:1011500086957105610508940895E894BB27662774
:101160007727CB0197F908950E94C7080C947A0855
:101170000E946C0838F00E94730820F0952311F04B
:101180000C9463080C94690811240C94AE080E9416
:101190008B0870F3959FC1F3950F50E0551F629F28
:1011A000F001729FBB27F00DB11D639FAA27F00DC0
:1011B000B11DAA1F649F6627B00DA11D661F829FE7
:1011C0002227B00DA11D621F739FB00DA11D621FCC
:1011D000839FA00D611D221F749F3327A00D611DE9
:1011E000231F849F600D211D822F762F6A2F1124CB
:1011F0009F5750409AF0F1F088234AF0EE0FFF1FFE
:10120000BB1F661F771F881F91505040A9F79E3F54
:10121000510580F00C9463080C94AE085F3FE4F332
:10122000983ED4F3869577956795B795F795E795AA
:101230009F5FC1F7FE2B880F911D9695879597F9B3
:061240000895F894FFCFB1
:1012460052616E67653A00446567726565733A0078
:10125600616464724E41434B0077725F4E41434B6B
:0A12660000726561644E41434B00C5
:00000001FF
