:100000000C942E000C944B000C944B000C944B0061
:100010000C944B000C944B000C944B000C94BE07BA
:100020000C944B000C944B000C944B000C944B0024
:100030000C944B000C944B000C944B000C944B0014
:100040000C944B000C944B000C944B000C944B0004
:100050000C944B000C944B000C944B0011241FBECD
:10006000CFEFD0E1DEBFCDBF11E0A0E0B1E0EEE028
:10007000F9E102C005900D92A233B107D9F721E052
:10008000A2E3B1E001C01D92A334B207E1F70E94E0
:10009000ED090C94850C0C940000CF93C82F81308F
:1000A00009F46195062E000C770B880B990B0E94C2
:1000B000630B2AE939E949E95EE30E94180C20E064
:1000C00030E04EEF52E40E94480A0E942B0B6E393A
:1000D000710514F06DE970E06136710514F461E6A4
:1000E00070E08C2FCF910C94160880E00E947C0366
:1000F00095EA981B892F0895CF9380E00E947C0396
:10010000C82F0E94580760E080E00E94C30580E08D
:1001100091E00E94B50661E080E00E94C30584EB97
:1001200090E08C1B91090E94DA068FE39CE901970D
:10013000F1F700C00000CF910895D0E0C0E001E0E9
:1001400010E0C00FD11F6C2F82E00E9416088FE1D3
:100150009EE40197F1F700C00000C630D1051CF401
:1001600001E010E0EECFC43BD1055CF30FEF1FEFD1
:10017000E8CFDF92EF92FF920F931F93CF93DF931D
:1001800060E082E00E9416082FEF84E39CE021509B
:1001900080409040E1F700C0000003E010E0D12C67
:1001A000FF24FA94C0E085EAE82E80E00E947C03F8
:1001B000DE2DD81BDF1510F4DC2EFD2ECD5F6C2F4D
:1001C00082E00E9416080E94580760E080E00E94CA
:1001D000C30587E091E00E94B50661E080E00E94DF
:1001E000C305C8010E94DA0661E085E00E94C305EC
:1001F0008D2F90E00E94DA062FEF86E791E02150E4
:1002000080409040E1F700C000000D5F1F4FC73BEA
:1002100061F68D2DDF91CF911F910F91FF90EF909F
:10022000DF90089584E00E947C0390E0089585E0CB
:100230000E947C0390E0089584E00E947C0387394B
:1002400018F081E090E0089585E00E947C0321E0B1
:1002500090E0873910F0822F089520E0822F0895D2
:10026000CF93DF932BE0829FE001112462E380E0D3
:100270000E944D006EEC81E00E944D00209761F0DD
:1002800090E080E0EFE9FFE03197F1F700C0000077
:100290000196C817D907B1F760E080E00E944D00D1
:1002A00060E081E00E944D006AE582E00E9416084D
:1002B000FFEF21EE84E0F15020408040E1F700C0E4
:1002C0000000DF91CF91089562E380E00E944D002D
:1002D00062E381E00E944D0009C02FEF80E792E0C9
:1002E000215080409040E1F700C000000E941C01B6
:1002F000892B99F360E080E00E944D0060E081E08E
:100300000C944D00AF92BF92CF92DF92EF92FF928A
:100310000F931F93CF93DF93B12CC12C8FE7D82E6F
:1003200093E4E92E2AE5A22EF12C24C020E030E04F
:1003300048EA51E4B8018D2F9C2F0E94130C181627
:1003400024F400E010E0D8EAC1E42B2D3C2D4D2D23
:100350005E2DB8018D2F9C2F0E94B40A87FF05C027
:10036000B02EC12EDD2EEC2EAF2C25E0F20E89EB47
:10037000F816A1F16F2D82E00E9416082FEF89EF89
:1003800090E0215080409040E1F700C0000080E004
:100390000E947C03682F70E090E080E00E94610B77
:1003A0009B01AC0160E070E083E393E40E94470AA4
:1003B00020E030E048EB50E40E94B90A8B01D82FCE
:1003C000C92F20E030E040E450E40E94B40A87FFE7
:1003D000ADCF00E010E0D0E4C0E4B7CF8A2DDF91CC
:1003E000CF911F910F91FF90EF90DF90CF90BF9032
:1003F000AF9008952F923F924F925F926F927F92AB
:100400008F929F92AF92BF92CF92DF92EF92FF9224
:100410000F931F93CF93DF9300D000D0CDB7DEB7FB
:1004200062E380E00E944D006EEC81E00E944D008E
:100430008CE6C82ED12C412C512C9FE7692E23E449
:10044000722E212C312C19821A82812C912CE12CB4
:10045000F12C53C020E030E048EA51E4B8018C812F
:100460009B810E94130C181634F400E010E028EA77
:100470002C8381E48B839201A301B8018C819B8141
:100480000E94B40A87FF06C028016C807B8014019B
:10049000E982FA820E94580760E080E00E94C3056A
:1004A00080E191E00E94B506B401C7010E942B0BC8
:1004B000CB010E94DA0661E080E00E94C30583E17F
:1004C00091E00E94B506C5010E94DA068FEF96E71B
:1004D00021E0815090402040E1F700C000002DEB6A
:1004E00033E547E550E4B401C7010E94480A4B01D7
:1004F0007C0181E0C81AD10859F180E00E947C0398
:10050000A82EB12C682F70E090E080E00E94610B73
:100510009B01AC0160E070E083E393E40E94470A32
:1005200020E030E048EB50E40E94B90A8B018C8354
:100530009B8320E030E040E450E40E94B40A87FF4F
:1005400089CF00E010E090E49C8320E42B8393CFDC
:1005500060E080E00E944D0060E081E00E944D007C
:100560000E94580760E080E00E94C30586E191E0A8
:100570000E94B50661E080E00E94C305B101898157
:100580009A810E94320B6983862F90E00E94DA06DE
:1005900089810F900F900F900F90DF91CF911F9155
:1005A0000F91FF90EF90DF90CF90BF90AF909F9012
:1005B0008F907F906F905F904F903F902F90089515
:1005C00062E380E00E944D006EEC81E00E944D00ED
:1005D0002FEF8EED90EC215080409040E1F700C06D
:1005E000000060E080E00E944D0060E081E00C943B
:1005F0004D008F929F92AF92BF92EF92FF921F9306
:10060000CF93DF93182FE82E880FFF08C62F660FB1
:10061000DD0BB7016C1B7D0B072E000C880B990BB3
:100620000E94630B2FE632E143E05CE30E94180C6A
:100630004B015C01612F110F770B880B990B0E9406
:10064000630B2EEA37E441E65DE30E94180C9B0140
:10065000AC01C501B4010E94480A20E030E040EA44
:1006600051E40E94480A0E94320B162F6627772712
:100670006E197F09072E000C880B990B0E94630BE3
:100680002EEA37E441E65DE30E94180C4B015C0161
:10069000BE016E197F09072E000C880B990B0E9472
:1006A000630B2FE632E143E05CE30E94180C9B01F0
:1006B000AC01C501B4010E94480A20E030E040EAE4
:1006C00051E40E94480A0E94320B962F812FDF913D
:1006D000CF911F91FF90EF90BF90AF909F908F9020
:1006E0000895EAE7F0E0808187688083ECE7F0E036
:1006F000808180668083089590917C00987F90939C
:100700007C0090917C00892B80937C0080917A0002
:10071000806480937A0080917A0086FDFCCF80917E
:10072000790008958DB18F7C8DB985E08A95F1F7B8
:1007300000006D9A759885E08A95F1F700006C9A33
:10074000749885E08A95F1F7000008956C9885E02B
:100750008A95F1F700006D9885E08A95F1F7000021
:1007600008956D9885E08A95F1F7000065990DC0B0
:100770006C9885E08A95F1F700006C9A749885E092
:100780008A95F1F70000659BF3CF6C9808956C98FB
:1007900085E08A95F1F700006C9A749885E08A9557
:1007A000F1F7000008951F93CF93DF93C82FD62F42
:1007B000142F0E94B1030E94920387E013C06D982A
:1007C00095E09A95F1F700006C9895E09A95F1F70D
:1007D00000006C9A749895E09A95F1F70000CC0FA0
:1007E000815029F0C6FDEBCF6D9A7598E9CF6D9ACF
:1007F000759885E08A95F1F700006C9895E09A95D8
:10080000F1F700006C9A749885E08A95F1F7000082
:100810006D9895E09A95F1F700006C9865994BC03A
:1008200085E08A95F1F700006C9A749895E09A95A6
:10083000F1F7000088E014C06D9A759895E09A95DC
:10084000F1F700006C9895E09A95F1F700006C9A2A
:10085000749895E09A95F1F70000DD0F815021F032
:10086000D7FFEACF6D98EACF6D9885E08A95F1F7CA
:1008700000006C9865991AC095E09A95F1F7000010
:100880006C9A749885E08A95F1F70000112351F075
:100890006C9895E09A95F1F700006D9885E08A953F
:1008A000F1F70000DF91CF911F91089584E291E06C
:1008B0000E94B506FFCF88E191E00E94B506FFCF08
:1008C000FC016623D1F14FEF460F50E04F5F5F4FC1
:1008D000480F591F908128E016C06D9A759885E0E1
:1008E0008A95F1F700006C9885E08A95F1F7000091
:1008F0006C9A749885E08A95F1F700009081990FC1
:100900009083215021F097FFE8CF6D98E8CF319682
:100910006D9885E08A95F1F700006C98659918C08C
:1009200085E08A95F1F700006C9A749885E08A95C5
:10093000F1F700004E175F0769F66C9885E08A951D
:10094000F1F700006D9885E08A95F1F700000895B1
:1009500081E291E00E94B506FFCF0F931F93CF93E2
:10096000DF93082FEB01142F0E94920387E013C03E
:100970006D9895E09A95F1F700006C9895E09A953E
:10098000F1F700006C9A749895E09A95F1F70000E1
:10099000000F815029F006FDEBCF6D9A7598E9CFD5
:1009A0006D9885E08A95F1F700006C9895E09A952E
:1009B000F1F700006C9A749885E08A95F1F70000D1
:1009C0006D9895E09A95F1F700006C9865995AC07A
:1009D00085E08A95F1F700006C9A749895E09A95F5
:1009E000F1F700006D9885E08A95F1F7000011237A
:1009F000B1F12FEF210F30E02F5F3F4F2C0F3D1F44
:100A000098E08881880F88836C9885E08A95F1F753
:100A10000000659B03C088818160888385E08A959A
:100A2000F1F700006C9A749885E08A95F1F7000060
:100A3000915039F76D9A759895E09A95F1F7000005
:100A40006C9885E08A95F1F700006C9A749895E0AF
:100A50009A95F1F7000021962C173D0789F685E05D
:100A60008A95F1F700006C9895E09A95F1F70000EF
:100A70006D9885E08A95F1F70000DF91CF911F9185
:100A80000F91089589E291E00E94B506FFCFCF93C0
:100A9000DF931F92CDB7DEB7498340E00E94D303B6
:100AA00061E0CE0101960E9460040F90DF91CF912A
:100AB00008951F93CF93DF931F92CDB7DEB7182F02
:100AC00041E00E94D30341E0BE016F5F7F4F812F61
:100AD0000E94AD0489810F90DF91CF911F910895FD
:100AE00061E08CE10C94590563E08CE10C945905AC
:100AF00065E08CE10C9459058AE08A95F1F700C015
:100B0000449A8AE08A95F1F700C044988AE08A9571
:100B1000F1F700C00895F89482B98AE08A95F1F758
:100B200000C0449A8AE08A95F1F700C044988AE0B0
:100B30008A95F1F700C0789408958F98F89482B957
:100B40008AE08A95F1F700C0449A8AE08A95F1F725
:100B500000C044988AE08A95F1F700C0789408951F
:100B60008F9AF89482B98AE08A95F1F700C0449A86
:100B70008AE08A95F1F700C044988AE08A95F1F7F7
:100B800000C078940895803110F4623008F0089520
:100B90006E5F6295660F660F607C860F8F98F89483
:100BA00082B98AE08A95F1F700C0449A8AE08A9572
:100BB000F1F700C044988AE08A95F1F700C0789474
:100BC00085EC8A95F1F7000008953C9A879A8FEF9B
:100BD00081B98FE19EE40197F1F700C000008F9882
:100BE000F89488E382B99AE09A95F1F700C0449AA4
:100BF000EAE0EA95F1F700C04498FAE0FA95F1F7D7
:100C000000C07894EFE7F2E03197F1F700C0000000
:100C10008F98F89482B9FAE0FA95F1F700C0449AF7
:100C20009AE09A95F1F700C04498EAE0EA95F1F766
:100C300000C07894EFE7F2E03197F1F700C00000D0
:100C40008F98F89482B9FAE0FA95F1F700C0449AC7
:100C50009AE09A95F1F700C04498EAE0EA95F1F736
:100C600000C07894EFE7F2E03197F1F700C00000A0
:100C70008F98F89498E092B9FAE0FA95F1F700C0ED
:100C8000449A9AE09A95F1F700C04498EAE0EA9510
:100C9000F1F700C07894EFE7F2E03197F1F700C088
:100CA00000008F98F89491E092B9FAE0FA95F1F784
:100CB00000C0449A9AE09A95F1F700C04498EAE09F
:100CC000EA95F1F700C07894EFE7FEE33197F1F78A
:100CD00000C000008F98F89496E092B9FAE0FA9577
:100CE000F1F700C0449A9AE09A95F1F700C0449851
:100CF000EAE0EA95F1F700C07894EFE7F2E0319787
:100D0000F1F700C000008F98F89482B9FAE0FA95E4
:100D1000F1F700C0449A8AE08A95F1F700C0449840
:100D20009AE09A95F1F700C07894EFE8F1E03197F6
:100D3000F1F700C000008F98F8948CE082B9FAE0D7
:100D4000FA95F1F700C0449A8AE08A95F1F700C05D
:100D500044989AE09A95F1F700C07894EFE8F1E0B2
:100D60003197F1F700C000000895DC019C919923B0
:100D700001F120E08F9AF89492B98AE08A95F1F710
:100D800000C0449A9AE09A95F1F700C044988AE02E
:100D90008A95F1F700C078948FE792E00197F1F718
:100DA00000C000002F5FFD01E20FF11D9081911145
:100DB000E1CF08951F93CF93DF939C01892B09F412
:100DC0005AC045E011E0EFE0F7E2CAE0D0E0C90127
:100DD000BF016F5F7F4F0E94190A662349F1E21736
:100DE000F30770F5605D8F9AF89462B9BAE0BA952E
:100DF000F1F700C0449A2AE02A95F1F700C0449820
:100E0000AAE0AA95F1F700C07894AFE7B2E0119795
:100E1000F1F700C0000010E09C01CF01BE010E946C
:100E20002D0AFB01415099F6DF91CF911F91089552
:100E3000E217F30718F41111EFCFD4CF1111EDCF52
:100E4000605D8F9AF89462B9BAE0BA95F1F700C084
:100E5000449A8AE08A95F1F700C044989AE09A95FE
:100E6000F1F700C07894AFE7B2E01197F1F700C056
:100E7000000010E0D2CF8F9AF89480E382B92AE084
:100E80002A95F1F700C0449A8AE08A95F1F700C0EC
:100E900044989AE09A95F1F700C07894AFE7B2E0F1
:100EA0001197F1F700C00000DF91CF911F910895D5
:100EB0008F98F89481E082B98AE08A95F1F700C0B2
:100EC000449A9AE09A95F1F700C044988AE08A958E
:100ED000F1F700C078948FE79EE30197F1F700C027
:100EE000000008955D9A5C980895382F262F4FEFE3
:100EF0006403C001112464E670E00E942D0A3111E0
:100F000007C06093B300121664F45C9A5D9808956C
:100F100067BD12161CF45E9A5F9808955F9A5E98FA
:100F200008950C947207CF93DF93C3EBD0E018823F
:100F30000E94720717BC5F9A5E9884B1806984B979
:100F40008AB1806F8AB9E0EBF0E0808188668083A7
:100F500080818260808384B5886684BD84B5826028
:100F600084BD8AE087BD8883DF91CF9108955C9A24
:100F70005D982C9A5F9A5E982F9A08951F920F920F
:100F80000FB60F9211242F933F934F935F938F933C
:100F90009F93EF93FF9340913201542F5695852FE5
:100FA00090E021E030E001C0220F5A95EAF740FDC1
:100FB00027C04091880050918900880F991FFC013B
:100FC000E55CFE4F80819181840F951F909389008D
:100FD0008093880088B1282B28B9809132018F5FD7
:100FE000877080933201FF91EF919F918F915F9174
:100FF0004F913F912F910F900FBE0F901F9018951A
:101000004091880050918900880F991FFC01ED5C88
:10101000FE4F80819181840F951F9093890080936A
:10102000880088B12095282328B9D7CF90E02AE0FE
:10103000629FB00111246C53764F880F991FFC01F9
:10104000E55CFE4F718360838D5C9E4F24ED30E341
:10105000261B370BFC01318320830895ABE3B1E0FD
:1010600024EC39E011963C932E93E3E3F1E080E128
:1010700097E29183808313963C932E9312979383E8
:10108000828315963C932E931497958384831796A9
:101090003C932E9316979783868387B18F6087B989
:1010A000E1E8F0E01082808182608083EFE6F0E08A
:1010B000808182608083789408958CB18095881FA8
:1010C0008827881F0895282F30E08E3010F080E0A8
:1010D0000895F901E259F74F0C94410A8B088B08E7
:1010E00096089608A108A608A608A808A808A808AF
:1010F000B3087C087C08870883B190E02950310947
:1011000002C0959587952A95E2F78170089583B17D
:101110008695817008952CB130E0A90102C05595E3
:1011200047958A95E2F7CA018170089582B390E0ED
:101130002F5F3F4F02C0959587952A95E2F7817002
:1011400008958CB186FB882780F9089523B1E4CFF8
:1011500086B190E02250310902C0959587952A9575
:10116000E2F78170089583B181700895282F30E0EF
:101170008E30B0F4F901E154F74F0C94410AE008C5
:10118000E008EC08EC08FA080C090C09FE08FE0857
:10119000FE081809D108D108CD08611165C0219851
:1011A00008952950310981E090E001C0880F2A9507
:1011B000EAF794B1662309F43FC0892B84B90895F6
:1011C00021E030E001C0220F8A95EAF78DB1662355
:1011D000C9F1282B2DB908952F5F3F4F81E090E092
:1011E00001C0880F2A95EAF793B3662379F1892B1A
:1011F00083BB0895662391F16E9A089522503109B8
:1012000081E090E001C0880F2A95EAF797B1662344
:1012100009F1892B87B9089521E030E001C0220F40
:101220008A95EAF784B16623D9F0282B24B908956A
:10123000662331F0209A08958095892384B9089512
:1012400020980895209528232DB908958095892305
:1012500083BB08958095892387B908956E98089572
:101260002095282324B90895219A0895282F30E045
:101270008E30B0F4F901E15CF64F0C94410A60093C
:1012800060096C096C097A098C098C097E097E0950
:101290007E099809510951094D09611165C02998C4
:1012A00008952950310981E090E001C0880F2A9506
:1012B000EAF795B1662309F43FC0892B85B90895F3
:1012C00021E030E001C0220F8A95EAF78EB1662353
:1012D000C9F1282B2EB908952F5F3F4F81E090E090
:1012E00001C0880F2A95EAF794B3662379F1892B18
:1012F00084BB0895662391F1769A089522503109AE
:1013000081E090E001C0880F2A95EAF798B1662342
:1013100009F1892B88B9089521E030E001C0220F3E
:101320008A95EAF785B16623D9F0282B25B9089567
:10133000662331F0289A08958095892385B9089508
:1013400028980895209528232EB9089580958923FB
:1013500084BB08958095892388B908957698089567
:101360002095282325B90895299A0895811104C04C
:10137000613031F0A0980895613021F0A19808956E
:10138000A09A0895A19A0895882311F0A19A08952A
:10139000A09A0895882311F0A1980895A09808951F
:1013A000529A83B3836083BB779A0E9471030E9431
:1013B000E5050E942E080E94930741E06AE28CE155
:1013C0000E9447052FEF81EE94E02150804090402D
:1013D000E1F700C000000C94B1030E94D0090E9404
:1013E00071030E94930760E081E00E944D0060E07D
:1013F00080E00E944D006AE582E00E9416080E948B
:10140000FA012FEF39E698E1215030409040E1F7A2
:1014100000C000008A500E9430012FEF39E688E1B9
:10142000215030408040E1F700C000000E9464017C
:10143000E6CFAA1BBB1B51E107C0AA1FBB1FA61703
:10144000B70710F0A61BB70B881F991F5A95A9F76D
:1014500080959095BC01CD01089597FB072E16F459
:10146000009407D077FD09D00E94190A07FC05D027
:101470003EF4909581959F4F0895709561957F4FAB
:101480000895EE0FFF1F0590F491E02D0994505838
:10149000BB27AA270E945F0A0C94D90B0E94CB0B92
:1014A00038F00E94D20B20F039F49F3F19F426F453
:1014B0000C94C80B0EF4E095E7FB0C94C20BE92FDB
:1014C0000E94EA0B58F3BA1762077307840795075F
:1014D00020F079F4A6F50C940C0C0EF4E0950B2E8C
:1014E000BA2FA02D0B01B90190010C01CA01A00176
:1014F0001124FF27591B99F0593F50F4503E68F1D1
:101500001A16F040A22F232F342F4427585FF3CF11
:10151000469537952795A795F0405395C9F77EF4E2
:101520001F16BA0B620B730B840BBAF09150A1F02B
:10153000FF0FBB1F661F771F881FC2F70EC0BA0FB1
:10154000621F731F841F48F4879577956795B79539
:10155000F7959E3F08F0B0CF9395880F08F0992734
:10156000EE0F9795879508950E949E0B08F481E0F1
:1015700008950E94CD0A0C94D90B0E94D20B58F00A
:101580000E94CB0B40F029F45F3F29F00C94C20B72
:1015900051110C940D0C0C94C80B0E94EA0B68F3CB
:1015A0009923B1F3552391F3951B550BBB27AA271C
:1015B00062177307840738F09F5F5F4F220F331F56
:1015C000441FAA1FA9F335D00E2E3AF0E0E832D01E
:1015D00091505040E695001CCAF72BD0FE2F29D021
:1015E000660F771F881FBB1F261737074807AB07F3
:1015F000B0E809F0BB0B802DBF01FF2793585F4F68
:101600003AF09E3F510578F00C94C20B0C940D0CEF
:101610005F3FE4F3983ED4F3869577956795B79549
:10162000F7959F5FC9F7880F911D9695879597F954
:101630000895E1E0660F771F881FBB1F62177307CD
:101640008407BA0720F0621B730B840BBA0BEE1FE2
:1016500088F7E09508950E94320B6894B1110C94BC
:101660000D0C08950E94F20B88F09F5798F0B92F47
:101670009927B751B0F0E1F0660F771F881F991FC7
:101680001AF0BA95C9F714C0B13091F00E940C0C51
:10169000B1E008950C940C0C672F782F8827B85F61
:1016A00039F0B93FCCF3869577956795B395D9F71F
:1016B0003EF490958095709561957F4F8F4F9F4F29
:1016C0000895E89409C097FB3EF490958095709535
:1016D00061957F4F8F4F9F4F9923A9F0F92F96E97E
:1016E000BB279395F695879577956795B795F111F3
:1016F000F8CFFAF4BB0F11F460FF1BC06F5F7F4F90
:101700008F4F9F4F16C0882311F096E911C07723A1
:1017100021F09EE8872F762F05C0662371F096E8AA
:10172000862F70E060E02AF09A95660F771F881F79
:10173000DAF7880F9695879597F90895990F00081D
:10174000550FAA0BE0E8FEEF16161706E807F90793
:10175000C0F012161306E407F50798F0621B730B2E
:10176000840B950B39F40A2661F0232B242B252BAF
:1017700021F408950A2609F4A140A6958FEF811D52
:10178000811D089597F99F6780E870E060E00895F3
:101790009FEF80EC089500240A9416161706180689
:1017A0000906089500240A94121613061406050665
:1017B0000895092E0394000C11F4882352F0BB0FF6
:1017C00040F4BF2B11F460FF04C06F5F7F4F8F4F59
:1017D0009F4F089557FD9058440F551F59F05F3F94
:1017E00071F04795880F97FB991F61F09F3F79F043
:1017F00087950895121613061406551FF2CF4695C5
:10180000F1DF08C0161617061806991FF1CF869546
:101810007105610508940895E894BB27662777272A
:10182000CB0197F908950E949E0B08F48FEF08955D
:101830000E942B0C0C94D90B0E94CB0B38F00E9409
:10184000D20B20F0952311F00C94C20B0C94C80B12
:1018500011240C940D0C0E94EA0B70F3959FC1F3B8
:10186000950F50E0551F629FF001729FBB27F00D4E
:10187000B11D639FAA27F00DB11DAA1F649F6627A3
:10188000B00DA11D661F829F2227B00DA11D621FF2
:10189000739FB00DA11D621F839FA00D611D221FAC
:1018A000749F3327A00D611D231F849F600D211D90
:1018B000822F762F6A2F11249F5750409AF0F1F013
:1018C00088234AF0EE0FFF1FBB1F661F771F881F7C
:1018D00091505040A9F79E3F510580F00C94C20BE7
:1018E0000C940D0C5F3FE4F3983ED4F38695779506
:1018F0006795B795F795E7959F5FC1F7FE2B880F22
:0E190000911D9695879597F90895F894FFCF5D
:10190E0052616E67653A00446567726565733A00A9
:10191E00413A00523A004200616464724E41434BB8
:10192E000077725F4E41434B00726561644E4143D6
:02193E004B005C
:00000001FF
