:100000000C942E000C944B000C944B000C944B0061
:100010000C944B000C944B000C944B000C94E0049B
:100020000C944B000C944B000C944B000C944B0024
:100030000C944B000C944B000C944B000C944B0014
:100040000C944B000C944B000C944B000C944B0004
:100050000C944B000C944B000C944B0011241FBECD
:10006000CFEFD0E1DEBFCDBF11E0A0E0B1E0E6E729
:10007000FFE002C005900D92A032B107D9F721E050
:10008000A0E2B1E001C01D92A133B207E1F70E94E6
:100090000F070C94B9070C94000061E088E00E94FF
:1000A000D80561E089E00E94D80561E08AE00E94FD
:1000B000D80561E08BE00E94D80561E08CE00C94EB
:1000C000D805CF93DF93D82FC8E060E08C2F0E9433
:1000D0005806CF5FCD30C9F761E088E08D0FDF9122
:1000E000CF910C945806EF92FF921F93CF93DF931A
:1000F00010E0009789F07C0110E0D0E0C0E08FE9CB
:100100009FE00197F1F700C000000E947F05182BC7
:100110002196EC16FD0699F7812FDF91CF911F9163
:10012000FF90EF900895EAE7F0E080818768808390
:10013000ECE7F0E0808180668083089590917C00F8
:10014000987F90937C0090917C00892B80937C0019
:1001500080917A00806480937A0080917A0086FD95
:10016000FCCF8091790008958DB18F7C8DB985E0A9
:100170008A95F1F700006D9A759885E08A95F1F7F8
:1001800000006C9A749885E08A95F1F70000089554
:100190006C9885E08A95F1F700006D9885E08A9566
:1001A000F1F7000008956D9885E08A95F1F7000059
:1001B00065990DC06C9885E08A95F1F700006C9AFE
:1001C000749885E08A95F1F70000659BF3CF6C98F1
:1001D00008956C9885E08A95F1F700006C9A749800
:1001E00085E08A95F1F7000008951F93CF93DF9380
:1001F000C82FD62F142F0E94D3000E94B40087E08E
:1002000013C06D9895E09A95F1F700006C9895E011
:100210009A95F1F700006C9A749895E09A95F1F729
:100220000000CC0F815029F0C6FDEBCF6D9A759878
:10023000E9CF6D9A759885E08A95F1F700006C9882
:1002400095E09A95F1F700006C9A749885E08A958C
:10025000F1F700006D9895E09A95F1F700006C9821
:1002600065994BC085E08A95F1F700006C9A749807
:1002700095E09A95F1F7000088E014C06D9A7598A2
:1002800095E09A95F1F700006C9895E09A95F1F752
:1002900000006C9A749895E09A95F1F70000DD0FD4
:1002A000815021F0D7FFEACF6D98EACF6D9885E0B5
:1002B0008A95F1F700006C9865991AC095E09A95B7
:1002C000F1F700006C9A749885E08A95F1F70000C8
:1002D000112351F06C9895E09A95F1F700006D9814
:1002E00085E08A95F1F70000DF91CF911F91089585
:1002F00082E191E00E94D703FFCF86E091E00E9467
:10030000D703FFCFFC016623D1F14FEF460F50E03A
:100310004F5F5F4F480F591F908128E016C06D9ABC
:10032000759885E08A95F1F700006C9885E08A95CC
:10033000F1F700006C9A749885E08A95F1F7000057
:100340009081990F9083215021F097FFE8CF6D980D
:10035000E8CF31966D9885E08A95F1F700006C98AA
:10036000659918C085E08A95F1F700006C9A749839
:1003700085E08A95F1F700004E175F0769F66C98E3
:1003800085E08A95F1F700006D9885E08A95F1F790
:10039000000008958FE091E00E94D703FFCF0F93F4
:1003A0001F93CF93DF93082FEB01142F0E94B4000B
:1003B00087E013C06D9895E09A95F1F700006C986E
:1003C00095E09A95F1F700006C9A749895E09A95EB
:1003D000F1F70000000F815029F006FDEBCF6D9A78
:1003E0007598E9CF6D9885E08A95F1F700006C98D3
:1003F00095E09A95F1F700006C9A749885E08A95DB
:10040000F1F700006D9895E09A95F1F700006C986F
:1004100065995AC085E08A95F1F700006C9A749846
:1004200095E09A95F1F700006D9885E08A95F1F7CF
:1004300000001123B1F12FEF210F30E02F5F3F4F6C
:100440002C0F3D1F98E08881880F88836C9885E089
:100450008A95F1F70000659B03C0888181608883DD
:1004600085E08A95F1F700006C9A749885E08A958A
:10047000F1F70000915039F76D9A759895E09A95CB
:10048000F1F700006C9885E08A95F1F700006C9A0E
:10049000749895E09A95F1F7000021962C173D0786
:1004A00089F685E08A95F1F700006C9895E09A95B9
:1004B000F1F700006D9885E08A95F1F70000DF9173
:1004C000CF911F910F91089587E191E00E94D7038A
:1004D000FFCFCF93DF931F92CDB7DEB7498340E0C4
:1004E0000E94F50061E0CE0101960E9482010F900A
:1004F000DF91CF9108951F93CF93DF931F92CDB7D4
:10050000DEB7182F41E00E94F50041E0BE016F5FA9
:100510007F4F812F0E94CF0189810F90DF91CF9172
:100520001F91089561E08CE10C947B0263E08CE103
:100530000C947B0265E08CE10C947B028AE08A9546
:10054000F1F700C0449A8AE08A95F1F700C0449818
:100550008AE08A95F1F700C00895F89482B98AE09C
:100560008A95F1F700C0449A8AE08A95F1F700C0B5
:1005700044988AE08A95F1F700C0789408958F989E
:10058000F89482B98AE08A95F1F700C0449A8AE02B
:100590008A95F1F700C044988AE08A95F1F700C087
:1005A000789408958F9AF89482B98AE08A95F1F741
:1005B00000C0449A8AE08A95F1F700C044988AE026
:1005C0008A95F1F700C078940895803110F4623074
:1005D00008F008956E5F6295660F660F607C860F67
:1005E0008F98F89482B98AE08A95F1F700C0449A0E
:1005F0008AE08A95F1F700C044988AE08A95F1F77D
:1006000000C0789485EC8A95F1F7000008953C9A33
:10061000879A8FEF81B98FE19EE40197F1F700C0CF
:1006200000008F98F89488E382B99AE09A95F1F7E0
:1006300000C0449AEAE0EA95F1F700C04498FAE075
:10064000FA95F1F700C07894EFE7F2E03197F1F70F
:1006500000C000008F98F89482B9FAE0FA95F1F79B
:1006600000C0449A9AE09A95F1F700C04498EAE0F5
:10067000EA95F1F700C07894EFE7F2E03197F1F7EF
:1006800000C000008F98F89482B9FAE0FA95F1F76B
:1006900000C0449A9AE09A95F1F700C04498EAE0C5
:1006A000EA95F1F700C07894EFE7F2E03197F1F7BF
:1006B00000C000008F98F89498E092B9FAE0FA959B
:1006C000F1F700C0449A9AE09A95F1F700C0449877
:1006D000EAE0EA95F1F700C07894EFE7F2E03197AD
:1006E000F1F700C000008F98F89491E092B9FAE019
:1006F000FA95F1F700C0449A9AE09A95F1F700C094
:100700004498EAE0EA95F1F700C07894EFE7FEE359
:100710003197F1F700C000008F98F89496E092B9F5
:10072000FAE0FA95F1F700C0449A9AE09A95F1F749
:1007300000C04498EAE0EA95F1F700C07894EFE74A
:10074000F2E03197F1F700C000008F98F89482B979
:10075000FAE0FA95F1F700C0449A8AE08A95F1F739
:1007600000C044989AE09A95F1F700C07894EFE8B9
:10077000F1E03197F1F700C000008F98F8948CE019
:1007800082B9FAE0FA95F1F700C0449A8AE08A95B6
:10079000F1F700C044989AE09A95F1F700C0789478
:1007A000EFE8F1E03197F1F700C000000895DC01B7
:1007B0009C91992301F120E08F9AF89492B98AE0F4
:1007C0008A95F1F700C0449A9AE09A95F1F700C033
:1007D00044988AE08A95F1F700C078948FE792E018
:1007E0000197F1F700C000002F5FFD01E20FF11D3E
:1007F00090819111E1CF08951F93CF93DF939C01D6
:10080000892B09F45AC045E011E0EFE0F7E2CAE0B5
:10081000D0E0C901BF016F5F7F4F0E948B07662345
:1008200049F1E217F30770F5605D8F9AF89462B9A9
:10083000BAE0BA95F1F700C0449A2AE02A95F1F798
:1008400000C04498AAE0AA95F1F700C07894AFE7F9
:10085000B2E01197F1F700C0000010E09C01CF0159
:10086000BE010E949F07FB01415099F6DF91CF9195
:100870001F910895E217F30718F41111EFCFD4CFA9
:100880001111EDCF605D8F9AF89462B9BAE0BA9514
:10089000F1F700C0449A8AE08A95F1F700C04498C5
:1008A0009AE09A95F1F700C07894AFE7B2E011971B
:1008B000F1F700C0000010E0D2CF8F9AF89480E3E7
:1008C00082B92AE02A95F1F700C0449A8AE08A9515
:1008D000F1F700C044989AE09A95F1F700C0789437
:1008E000AFE7B2E01197F1F700C00000DF91CF91C0
:1008F0001F9108958F98F89481E082B98AE08A95D3
:10090000F1F700C0449A9AE09A95F1F700C0449834
:100910008AE08A95F1F700C078948FE79EE301970B
:10092000F1F700C0000008955D9A5C980895382F93
:10093000262F4FEF6403C001112464E670E00E948B
:100940009F07311107C06093B300121664F45C9ADC
:100950005D98089567BD12161CF45E9A5F9808951D
:100960005F9A5E9808950C949404CF93DF93C3EB41
:10097000D0E018820E94940417BC5F9A5E9884B1FC
:10098000806984B98AB1806F8AB9E0EBF0E0808138
:100990008866808380818260808384B5886684BD18
:1009A00084B5826084BD8AE087BD8883DF91CF9162
:1009B00008955C9A5D982C9A5F9A5E982F9A089594
:1009C0001F920F920FB60F9211242F933F934F93C4
:1009D0005F938F939F93EF93FF9340912001542F48
:1009E0005695852F90E021E030E001C0220F5A9506
:1009F000EAF740FD27C04091880050918900880F98
:100A0000991FFC01E75DFE4F80819181840F951F46
:100A1000909389008093880088B1282B28B9809111
:100A200020018F5F877080932001FF91EF919F914C
:100A30008F915F914F913F912F910F900FBE0F902B
:100A40001F9018954091880050918900880F991F38
:100A5000FC01EF5DFE4F80819181840F951F909383
:100A600089008093880088B12095282328B9D7CFA2
:100A700090E02AE0629FB00111246C53764F880FFA
:100A8000991FFC01E75DFE4F718360838F5D9E4F70
:100A900024ED30E3261B370BFC01318320830895BE
:100AA000A9E2B1E024EC39E011963C932E93E1E207
:100AB000F1E080E197E29183808313963C932E933B
:100AC00012979383828315963C932E931497958364
:100AD000848317963C932E9316979783868387B1CA
:100AE0008F6087B9E1E8F0E01082808182608083C6
:100AF000EFE6F0E0808182608083789408958CB185
:100B00008095881F8827881F0895282F30E08E3011
:100B100010F080E00895F901E057FA4F0C94B30704
:100B2000AD05AD05B805B805C305C805C805CA05B6
:100B3000CA05CA05D5059E059E05A90583B190E0A5
:100B40002950310902C0959587952A95E2F7817061
:100B5000089583B18695817008952CB130E0A90184
:100B600002C0559547958A95E2F7CA0181700895AC
:100B700082B390E02F5F3F4F02C0959587952A95ED
:100B8000E2F7817008958CB186FB882780F908957B
:100B900023B1E4CF86B190E02250310902C095958F
:100BA00087952A95E2F78170089583B18170089541
:100BB000282F30E08E30B0F4F901EF51FA4F0C9449
:100BC000B307020602060E060E061C062E062E06A9
:100BD0002006200620063A06F305F305EF0561110D
:100BE00065C0219808952950310981E090E001C045
:100BF000880F2A95EAF794B1662309F43FC0892B40
:100C000084B9089521E030E001C0220F8A95EAF707
:100C10008DB16623C9F1282B2DB908952F5F3F4F61
:100C200081E090E001C0880F2A95EAF793B366232C
:100C300079F1892B83BB0895662391F16E9A08950B
:100C40002250310981E090E001C0880F2A95EAF72F
:100C500097B1662309F1892B87B9089521E030E027
:100C600001C0220F8A95EAF784B16623D9F0282BB8
:100C700024B90895662331F0209A08958095892338
:100C800084B9089520980895209528232DB90895B2
:100C90008095892383BB08958095892387B908951A
:100CA0006E9808952095282324B90895219A0895CF
:100CB000282F30E08E30B0F4F901EF59F94F0C9441
:100CC000B307820682068E068E069C06AE06AE0628
:100CD000A006A006A006BA06730673066F06611189
:100CE00065C0299808952950310981E090E001C03C
:100CF000880F2A95EAF795B1662309F43FC0892B3E
:100D000085B9089521E030E001C0220F8A95EAF705
:100D10008EB16623C9F1282B2EB908952F5F3F4F5E
:100D200081E090E001C0880F2A95EAF794B366232A
:100D300079F1892B84BB0895662391F1769A089501
:100D40002250310981E090E001C0880F2A95EAF72E
:100D500098B1662309F1892B88B9089521E030E024
:100D600001C0220F8A95EAF785B16623D9F0282BB6
:100D700025B90895662331F0289A0895809589232E
:100D800085B9089528980895209528232EB90895A7
:100D90008095892384BB08958095892388B9089517
:100DA000769808952095282325B90895299A0895BD
:100DB000811104C0613031F0A0980895613021F0B4
:100DC000A1980895A09A0895A19A0895882311F0F2
:100DD000A19A0895A09A0895882311F0A1980895E2
:100DE000A0980895529A83B3836083BB779A0E9438
:100DF00093000E9407030E9450050E94B50441E041
:100E00006AE28CE10E9469022FEF81EE94E02150AA
:100E100080409040E1F700C000000C94D300AF92F6
:100E2000BF92CF92DF92EF92FF920F931F93CF93D7
:100E3000DF9300D000D000D0CDB7DEB70E94F2061D
:100E40000E9407030E944D0086E0E0E0F1E0DE0131
:100E5000119601900D928A95E1F784EFC82EDD245A
:100E6000D394AA24A394EE24E3948E2D0E946100CF
:100E70000E947F05B82E10E000E0F12CC114D104CF
:100E800079F08FE99FE00197F1F700C000000E9420
:100E90007F05F82A0F5F1F4FC016D10691F7BF28B4
:100EA000BB2069F0EE2089F094E0E91216C099E1C8
:100EB000C91AD1088FEFAA24AA94E80ED6CF8E2D96
:100EC0008B7F59F08A2DE80ED0CF89E1C81AD1085E
:100ED00081E0AA24A394E80EC8CFCE0101960E9417
:100EE000D70361E080E00E94E502C6010E94FC0396
:100EF00090E080E026960FB6F894DEBF0FBECDBF1F
:100F0000DF91CF911F910F91FF90EF90DF90CF90E5
:100F1000BF90AF900895AA1BBB1B51E107C0AA1F49
:100F2000BB1FA617B70710F0A61BB70B881F991F8A
:100F30005A95A9F780959095BC01CD01089597FB2E
:100F4000072E16F4009407D077FD09D00E948B0776
:100F500007FC05D03EF4909581959F4F08957095BC
:100F600061957F4F0895EE0FFF1F0590F491E02DDE
:060F70000994F894FFCF84
:100F760044656C617900616464724E41434B00774D
:100F8600725F4E41434B00726561644E41434B00B4
:00000001FF
