:100000000C942E000C944B000C944B000C944B0061
:100010000C944B000C944B000C944B000C946D060C
:100020000C944B000C944B000C944B000C944B0024
:100030000C944B000C944B000C944B000C944B0014
:100040000C944B000C944B000C944B000C944B0004
:100050000C944B000C944B000C944B0011241FBECD
:10006000CFEFD0E1DEBFCDBF11E0A0E0B1E0ECE822
:10007000F7E102C005900D92A832B107D9F721E04F
:10008000A8E2B1E001C01D92A933B207E1F70E94D6
:100090009C080C94C40B0C940000CF93DF93CDB755
:1000A000DEB760970FB6F894DEBF0FBECDBF8E01EE
:1000B0000F5F1F4F5EE1552E22242A94312C7FE7DB
:1000C000A72EB12CE0E0CE2EE1E0DE2EF0E14F2EA7
:1000D000A5E06A2EA1E07A2E80E00E942B02F82E85
:1000E00081E00E942B02482F9FEF25EA8EE091507D
:1000F00020408040E1F700C00000842F90E0F81617
:10010000190609F008F45DC0F59C90011124285CE3
:100110003941ADECBCEC0E94D008929582958F706D
:1001200089279F7089277C012FE7E20EF11C459DEE
:1001300090011124285C39410E94D0089295829543
:100140008F7089279F7089274501881A990A6E2D1B
:1001500080E00E94C506682D81E00E94C506FF92DE
:10016000EF92DF92CF921F924F921F930F930E94B4
:10017000DF080E94070660E080E00E947204C80168
:100180000E9464059F928F927F926F921F924F926E
:100190001F930F930E94DF0861E080E00E947204C9
:1001A000C8010E94640567E080E00E9472048AE052
:1001B00091E00E9464050FB6F894DEBF0FBECDBF7C
:1001C0008BCFF59C90011124285C3941ADECBCEC3F
:1001D0000E94D008929582958F7089279F708927F9
:1001E0007C012FE7E20EF11C459DC0011124B101F5
:1001F0000E94B6084501861A970A6E2D80E00E947B
:10020000C506682D81E00E94C506FF92EF92DF923D
:10021000CF921F924F921F930F930E94DF080E946C
:10022000070660E080E00E947204C8010E94640535
:100230009F928F927F926F921F924F921F930F9374
:100240000E94DF0861E080E00E947204C8010E9401
:10025000640567E080E00E9472048CE091E00E94F7
:1002600064050FB6F894DEBF0FBECDBF35CFCF9378
:10027000DF93CDB7DEB760970FB6F894DEBF0FBE41
:10028000CDBF8E010F5F1F4F5EE1552E22242A94B1
:10029000312C7FE7A72EB12CE0E0CE2EE1E0DE2E60
:1002A000F0E14F2EA5E06A2EA1E07A2E80E00E94B8
:1002B0002B02F82E81E00E942B02482F9FEF25EAA7
:1002C0008EE0915020408040E1F700C00000842F74
:1002D00090E0F816190608F05DC0F59C9001112415
:1002E000285C3941ADECBCEC0E94D0089295829517
:1002F0008F7089279F7089277C012FE7E20EF11C00
:10030000459D90011124285C39410E94D0089295A6
:1003100082958F7089279F7089274501881A990ACD
:100320006E2D80E00E94C506682D81E00E94C50602
:10033000FF92EF92DF92CF921F924F921F930F93F3
:100340000E94DF080E94070660E080E00E947204BD
:10035000C8010E9464059F928F927F926F921F92B4
:100360004F921F930F930E94DF0861E080E00E948C
:100370007204C8010E94640567E080E00E94720474
:100380008AE091E00E9464050FB6F894DEBF0FBECC
:10039000CDBF8CCFF59C90011124285C3941ADEC88
:1003A000BCEC0E94D008929582958F7089279F702F
:1003B00089277C012FE7E20EF11C459DC001112425
:1003C000B1010E94B6084501861A970A6E2D80E099
:1003D0000E94C506682D81E00E94C506FF92EF923B
:1003E000DF92CF921F924F921F930F930E94DF08CC
:1003F0000E94070660E080E00E947204C8010E942B
:1004000064059F928F927F926F921F924F921F93DB
:100410000F930E94DF0861E080E00E947204C8012F
:100420000E94640567E080E00E9472048CE091E025
:100430000E9464050FB6F894DEBF0FBECDBF36CF65
:10044000EAE7F0E0808187688083ECE7F0E0808174
:1004500080668083089590917C00987F90937C00C3
:1004600090917C00892B80937C0080917A0080643D
:1004700080937A0080917A0086FDFCCF809179008C
:1004800008958DB18F7C8DB985E08A95F1F70000D4
:100490006D9A759885E08A95F1F700006C9A7498CA
:1004A00085E08A95F1F7000008956C9885E08A95BB
:1004B000F1F700006D9885E08A95F1F70000089546
:1004C0006D9885E08A95F1F7000065990DC06C98EC
:1004D00085E08A95F1F700006C9A749885E08A951A
:1004E000F1F70000659BF3CF6C9808956C9885E058
:1004F0008A95F1F700006C9A749885E08A95F1F777
:10050000000008951F93CF93DF93C82FD62F142F89
:100510000E9460020E94410287E013C06D9895E03E
:100520009A95F1F700006C9895E09A95F1F7000024
:100530006C9A749895E09A95F1F70000CC0F815071
:1005400029F0C6FDEBCF6D9A7598E9CF6D9A759835
:1005500085E08A95F1F700006C9895E09A95F1F79F
:1005600000006C9A749885E08A95F1F700006D9808
:1005700095E09A95F1F700006C9865994BC085E07D
:100580008A95F1F700006C9A749895E09A95F1F7C6
:10059000000088E014C06D9A759895E09A95F1F77F
:1005A00000006C9895E09A95F1F700006C9A7498A9
:1005B00095E09A95F1F70000DD0F815021F0D7FF0B
:1005C000EACF6D98EACF6D9885E08A95F1F7000043
:1005D0006C9865991AC095E09A95F1F700006C9AAD
:1005E000749885E08A95F1F70000112351F06C981A
:1005F00095E09A95F1F700006D9885E08A95F1F7FE
:100600000000DF91CF911F9108958AE191E00E944F
:100610006405FFCF8EE091E00E946405FFCFFC01EE
:100620006623D1F14FEF460F50E04F5F5F4F480F09
:10063000591F908128E016C06D9A759885E08A95BB
:10064000F1F700006C9885E08A95F1F700006C9A4C
:10065000749885E08A95F1F700009081990F908356
:10066000215021F097FFE8CF6D98E8CF31966D9833
:1006700085E08A95F1F700006C98659918C085E0CF
:100680008A95F1F700006C9A749885E08A95F1F7E5
:1006900000004E175F0769F66C9885E08A95F1F7C0
:1006A00000006D9885E08A95F1F70000089587E1D4
:1006B00091E00E946405FFCF0F931F93CF93DF93C8
:1006C000082FEB01142F0E94410287E013C06D98A0
:1006D00095E09A95F1F700006C9895E09A95F1F7FE
:1006E00000006C9A749895E09A95F1F70000000F5D
:1006F000815029F006FDEBCF6D9A7598E9CF6D9882
:1007000085E08A95F1F700006C9895E09A95F1F7ED
:1007100000006C9A749885E08A95F1F700006D9856
:1007200095E09A95F1F700006C9865995AC085E0BC
:100730008A95F1F700006C9A749895E09A95F1F714
:1007400000006D9885E08A95F1F700001123B1F162
:100750002FEF210F30E02F5F3F4F2C0F3D1F98E010
:100760008881880F88836C9885E08A95F1F700006E
:10077000659B03C088818160888385E08A95F1F755
:1007800000006C9A749885E08A95F1F7000091500A
:1007900039F76D9A759895E09A95F1F700006C9885
:1007A00085E08A95F1F700006C9A749895E09A9527
:1007B000F1F7000021962C173D0789F685E08A9510
:1007C000F1F700006C9895E09A95F1F700006D98AC
:1007D00085E08A95F1F70000DF91CF911F910F918D
:1007E00008958FE191E00E946405FFCFCF93DF93DE
:1007F0001F92CDB7DEB7498340E00E94820261E0DC
:10080000CE0101960E940F030F90DF91CF910895C2
:100810001F93CF93DF931F92CDB7DEB7182F41E020
:100820000E94820241E0BE016F5F7F4F812F0E94D4
:100830005C0389810F90DF91CF911F91089561E052
:100840008CE10C94080463E08CE10C94080465E0EE
:100850008CE10C9408048AE08A95F1F700C0449A70
:100860008AE08A95F1F700C044988AE08A95F1F70A
:1008700000C00895F89482B98AE08A95F1F700C023
:10088000449A8AE08A95F1F700C044988AE08A95F4
:10089000F1F700C0789408958F98F89482B98AE0AF
:1008A0008A95F1F700C0449A8AE08A95F1F700C072
:1008B00044988AE08A95F1F700C0789408958F9A59
:1008C000F89482B98AE08A95F1F700C0449A8AE0E8
:1008D0008A95F1F700C044988AE08A95F1F700C044
:1008E00078940895803110F4623008F008956E5FB6
:1008F0006295660F660F607C860F8F98F89482B9B8
:100900008AE08A95F1F700C0449A8AE08A95F1F767
:1009100000C044988AE08A95F1F700C0789485EC8D
:100920008A95F1F7000008953C9A879A8FEF81B974
:100930008FE19EE40197F1F700C000008F98F894D2
:1009400088E382B99AE09A95F1F700C0449AEAE008
:10095000EA95F1F700C04498FAE0FA95F1F700C083
:100960007894EFE7F2E03197F1F700C000008F983C
:10097000F89482B9FAE0FA95F1F700C0449A9AE047
:100980009A95F1F700C04498EAE0EA95F1F700C0C3
:100990007894EFE7F2E03197F1F700C000008F980C
:1009A000F89482B9FAE0FA95F1F700C0449A9AE017
:1009B0009A95F1F700C04498EAE0EA95F1F700C093
:1009C0007894EFE7F2E03197F1F700C000008F98DC
:1009D000F89498E092B9FAE0FA95F1F700C0449AD9
:1009E0009AE09A95F1F700C04498EAE0EA95F1F7A9
:1009F00000C07894EFE7F2E03197F1F700C0000013
:100A00008F98F89491E092B9FAE0FA95F1F700C066
:100A1000449A9AE09A95F1F700C04498EAE0EA9582
:100A2000F1F700C07894EFE7FEE33197F1F700C0EB
:100A300000008F98F89496E092B9FAE0FA95F1F7F1
:100A400000C0449A9AE09A95F1F700C04498EAE011
:100A5000EA95F1F700C07894EFE7F2E03197F1F70B
:100A600000C000008F98F89482B9FAE0FA95F1F787
:100A700000C0449A8AE08A95F1F700C044989AE051
:100A80009A95F1F700C07894EFE8F1E03197F1F72B
:100A900000C000008F98F8948CE082B9FAE0FA95D3
:100AA000F1F700C0449A8AE08A95F1F700C04498B3
:100AB0009AE09A95F1F700C07894EFE8F1E0319769
:100AC000F1F700C000000895DC019C91992301F129
:100AD00020E08F9AF89492B98AE08A95F1F700C0E5
:100AE000449A9AE09A95F1F700C044988AE08A9572
:100AF000F1F700C078948FE792E00197F1F700C01A
:100B000000002F5FFD01E20FF11D90819111E1CFF7
:100B100008951F93CF93DF939C01892B09F45AC04A
:100B200045E011E0EFE0F7E2CAE0D0E0C901BF0123
:100B30006F5F7F4F0E94A208662349F1E217F30717
:100B400070F5605D8F9AF89462B9BAE0BA95F1F7E2
:100B500000C0449A2AE02A95F1F700C04498AAE020
:100B6000AA95F1F700C07894AFE7B2E01197F1F7DA
:100B700000C0000010E09C01CF01BE010E94B60839
:100B8000FB01415099F6DF91CF911F910895E21733
:100B9000F30718F41111EFCFD4CF1111EDCF605D31
:100BA0008F9AF89462B9BAE0BA95F1F700C0449A06
:100BB0008AE08A95F1F700C044989AE09A95F1F797
:100BC00000C07894AFE7B2E01197F1F700C00000E1
:100BD00010E0D2CF8F9AF89480E382B92AE02A9568
:100BE000F1F700C0449A8AE08A95F1F700C0449872
:100BF0009AE09A95F1F700C07894AFE7B2E01197C8
:100C0000F1F700C00000DF91CF911F9108958F98F8
:100C1000F89481E082B98AE08A95F1F700C0449A9D
:100C20009AE09A95F1F700C044988AE08A95F1F726
:100C300000C078948FE79EE30197F1F700C00000B1
:100C400008955D9A5C980895382F262F4FEF64031E
:100C5000C001112464E670E00E94B608311107C09B
:100C60006093B300121664F45C9A5D98089567BDB2
:100C700012161CF45E9A5F9808955F9A5E98089524
:100C80000C942106CF93DF93C3EBD0E018820E942F
:100C9000210617BC5F9A5E9884B1806984B98AB1D5
:100CA000806F8AB9E0EBF0E0808188668083808184
:100CB0008260808384B5886684BD84B5826084BD8B
:100CC0008AE087BD8883DF91CF9108955C9A5D9813
:100CD0002C9A5F9A5E982F9A08951F920F920FB6E2
:100CE0000F9211242F933F934F935F938F939F9372
:100CF000EF93FF9340912801542F5695852F90E054
:100D000021E030E001C0220F5A95EAF740FD27C0EC
:100D10004091880050918900880F991FFC01EF5C79
:100D2000FE4F80819181840F951F9093890080935D
:100D3000880088B1282B28B9809128018F5F87709F
:100D400080932801FF91EF919F918F915F914F9137
:100D50003F912F910F900FBE0F901F9018954091CB
:100D6000880050918900880F991FFC01E75DFE4FB4
:100D700080819181840F951F9093890080938800D2
:100D800088B12095282328B9D7CF90E02AE0629F28
:100D9000B00111246C53764F880F991FFC01EF5C52
:100DA000FE4F71836083875D9E4F24ED30E3261BE9
:100DB000370BFC01318320830895A1E3B1E024ECDB
:100DC00039E011963C932E93E9E2F1E080E197E25D
:100DD0009183808313963C932E93129793838283FF
:100DE00015963C932E9314979583848317963C9382
:100DF0002E9316979783868387B18F6087B9E1E832
:100E0000F0E01082808182608083EFE6F0E08081F4
:100E100082608083789408958CB18095881F88279C
:100E2000881F0895282F30E08E3010F080E008955C
:100E3000F901E35EF84F0C94CA083A073A074507F0
:100E400045075007550755075707570757076207C4
:100E50002B072B07360783B190E02950310902C0D8
:100E6000959587952A95E2F78170089583B18695C7
:100E7000817008952CB130E0A90102C055954795C5
:100E80008A95E2F7CA018170089582B390E02F5FDE
:100E90003F4F02C0959587952A95E2F78170089596
:100EA0008CB186FB882780F9089523B1E4CF86B101
:100EB00090E02250310902C0959587952A95E2F776
:100EC0008170089583B181700895282F30E08E30AD
:100ED000B0F4F901E259F84F0C94CA088F078F0754
:100EE0009B079B07A907BB07BB07AD07AD07AD076E
:100EF000C707800780077C07611165C021980895A6
:100F00002950310981E090E001C0880F2A95EAF765
:100F100094B1662309F43FC0892B84B9089521E078
:100F200030E001C0220F8A95EAF78DB16623C9F13E
:100F3000282B2DB908952F5F3F4F81E090E001C02D
:100F4000880F2A95EAF793B3662379F1892B83BB3F
:100F50000895662391F16E9A08952250310981E037
:100F600090E001C0880F2A95EAF797B1662309F14E
:100F7000892B87B9089521E030E001C0220F8A95BE
:100F8000EAF784B16623D9F0282B24B908956623A3
:100F900031F0209A08958095892384B90895209886
:100FA0000895209528232DB908958095892383BB22
:100FB00008958095892387B908956E98089520959E
:100FC000282324B90895219A0895282F30E08E30DF
:100FD000B0F4F901E251F84F0C94CA080F080F0859
:100FE0001B081B0829083B083B082D082D082D0865
:100FF000470800080008FC07611165C0299808959A
:101000002950310981E090E001C0880F2A95EAF764
:1010100095B1662309F43FC0892B85B9089521E075
:1010200030E001C0220F8A95EAF78EB16623C9F13C
:10103000282B2EB908952F5F3F4F81E090E001C02B
:10104000880F2A95EAF794B3662379F1892B84BB3C
:101050000895662391F1769A08952250310981E02E
:1010600090E001C0880F2A95EAF798B1662309F14C
:10107000892B88B9089521E030E001C0220F8A95BC
:10108000EAF785B16623D9F0282B25B908956623A0
:1010900031F0289A08958095892385B90895289874
:1010A0000895209528232EB908958095892384BB1F
:1010B00008958095892388B9089576980895209594
:1010C000282325B90895299A0895811104C0613013
:1010D00031F0A0980895613021F0A1980895A09A68
:1010E0000895A19A0895882311F0A19A0895A09ACD
:1010F0000895882311F0A1980895A0980895529A10
:1011000083B3836083BB779A0E9420020E94940479
:101110000E94DD060E94420641E06AE28CE10E94E4
:10112000F6032FEF81EE94E0215080409040E1F7EC
:1011300000C000000C9460020E947F080E94200200
:101140000E943701AA1BBB1B51E107C0AA1FBB1F8E
:10115000A617B70710F0A61BB70B881F991F5A9543
:10116000A9F780959095BC01CD01089597FB072EB6
:1011700016F4009407D077FD09D00E94A20807FC5E
:1011800005D03EF4909581959F4F08957095619597
:101190007F4F0895EE0FFF1F0590F491E02D099405
:1011A000A29FB001B39FC001A39F700D811D1124A8
:1011B000911DB29F700D811D1124911D0895AEE007
:1011C000B0E0E5EEF8E00C949B0B0D891E898F8949
:1011D000988D26E02C831A83098397FF02C080E054
:1011E00090E801979E838D83AE01455E5F4F698DC8
:1011F0007A8DCE0101960E940F094D815E8157FDC7
:101200000AC02F813885421753070CF49A01020F48
:10121000131FF80110822E96E4E00C94B70BABE09C
:10122000B0E0E5E1F9E00C948D0B7C013B018A0113
:10123000FC0117821682838181FFC8C1CE0101960D
:101240005C01F7019381F30193FD859193FF8191F7
:101250003F01882309F453C1853239F493FD859108
:1012600093FF81913F01853229F4B70190E00E94FC
:10127000FF0AE7CF912C212C312CFFE1F31538F038
:101280008B3211F190F4803209F1833229F137FC6D
:101290003CC020ED280F2A3050F536FE20C08AE0F1
:1012A000989E200D1124922E06C08D3291F080332D
:1012B00071F7689430F8F30193FD859193FF819164
:1012C0003F018111DACF21C0689431F8689432F877
:1012D000F2CF689433F8EFCF689434F8ECCFEAE0BB
:1012E0002E9E200D1124222E689435F8E4CF8E32E4
:1012F00029F436FC04C1689436F8DDCF8C3619F435
:10130000689437F8D8CF8836B1F2982F9F7D9554DE
:101310009330E0F08336A1F18337C1F1833509F0D2
:1013200063C02801F2E04F0E511CF801C080D1804B
:10133000692D70E036FC02C06FEF7FEFC6010E949E
:10134000E90A4C01689437F882010AC00C5F1F4F0C
:10135000FFE3F98388248394912C6501E89437F89E
:1013600033FE2DC0522C8114910471F5552009F4DF
:1013700068CFB70180E290E00E94FF0A5A94F6CF4E
:10138000F801808189830E5F1F4FE4CF2801F2E0CE
:101390004F0E511CF801C080D180692D70E036FCE1
:1013A00002C06FEF7FEFC6010E94F40A4C01820178
:1013B000D5CFB70180E290E00E94FF0A2A9428145A
:1013C000190409F0B0F7CECFF60137FC859137FE4E
:1013D00081916F01B70190E00E94FF0A51105A9469
:1013E000F1E08F1A9108BFCF843619F0893609F0E1
:1013F00077C0F80137FE6BC0608171818281938173
:101400000C5F1F4FF32DFF763F2E97FF09C090957D
:101410008095709561957F4F8F4F9F4F689437F8F7
:101420002AE030E0A5010E942F0BC82ECA188C2C90
:10143000432C36FE0CC0E89440F8C91440F434FE46
:1014400005C032FC03C0F32DFE7E4F2E892C44FED6
:1014500095C0FE01EC0DF11D8081803309F087C03D
:10146000242D297E422E842D8870582E43FC95C051
:1014700040FE8FC09C2C821418F42C0C922C9818CF
:1014800044FE91C0B70180E390E00E94FF0A42FE53
:1014900009C088E790E041FE02C088E590E0B7010E
:1014A0000E94FF0AC91408F48AC0CA94D12C9FEF85
:1014B000C91AD90ACA0CDB1CF60182916F01B70167
:1014C00090E00E94FF0AAC14BD04B1F74FCF6081D9
:1014D0007181072E000C880B990B0E5F1F4F92CF66
:1014E000D32CE894D4F82AE030E0853739F1232D65
:1014F000297FD22E8F3601F148F48835A9F0F70103
:10150000868197812B96E2E10C94A90B803749F0F4
:101510008837A9F7D4FE02C06894D2F820E130E001
:101520000DC06894D4F8F6CF34FE03C0822F8660D5
:10153000D82E20E132E002C028E030E0F801D7FEEA
:101540000FC060817181828193810C5F1F4FA50163
:101550000E942F0BC82ECA183D2CE89437F867CF8D
:101560006081718190E080E00E5F1F4FF0CF42FC00
:1015700002C0839478CF8394839475CF842D86782A
:1015800009F471CFF6CFB70180E290E00E94FF0A24
:1015900083948214C0F3512C73CF522C58188214A8
:1015A00008F46ECFF8CF842D867809F47BCF8BE2D8
:1015B00041FE80E247FC8DE2B70190E071CFB701B8
:1015C00080E390E00E94FF0A9A946CCF8FEF9FEF28
:1015D00099CFFC010590615070400110D8F78095BB
:1015E00090958E0F9F1F0895FC01615070400190EF
:1015F0000110D8F7809590958E0F9F1F08950F9337
:101600001F93CF93DF93182F092FEB018B8181FD5F
:1016100009C01FEF0FEF812F902FDF91CF911F9106
:101620000F91089582FF14C02E813F818C819D818E
:10163000281739073CF4E881F981CF010196998395
:10164000888310838E819F8101969F838E83E3CF51
:10165000E885F985812F0995892BA1F3DACFFA0165
:10166000AA27283051F1203181F1E8946F936E7FE1
:101670006E5F7F4F8F4F9F4FAF4FB1E03ED0B4E0D2
:101680003CD0670F781F891F9A1FA11D680F791F13
:101690008A1F911DA11D6A0F711D811D911DA11D24
:1016A00020D009F468943F912AE0269F1124301934
:1016B000305D3193DEF6CF010895462F4770405DCF
:1016C0004193B3E00FD0C9F7F6CF462F4F70405D7E
:1016D0004A3318F0495D31FD4052419302D0A9F7D9
:1016E000EACFB4E0A6959795879577956795BA95D3
:1016F000C9F700976105710508959B01AC010A2E99
:1017000006945795479537952795BA95C9F7620F6F
:10171000731F841F951FA01D08952F923F924F9213
:101720005F926F927F928F929F92AF92BF92CF9271
:10173000DF92EF92FF920F931F93CF93DF93CDB77A
:10174000DEB7CA1BDB0B0FB6F894DEBF0FBECDBFF2
:1017500009942A88398848885F846E847D848C84C3
:101760009B84AA84B984C884DF80EE80FD800C81CC
:101770001B81AA81B981CE0FD11D0FB6F894DEBFAF
:0C1780000FBECDBFED010895F894FFCF1F
:10178C00302025640031202564004C005200616437
:10179C0064724E41434B0077725F4E41434B007273
:0817AC006561644E41434B00EE
:00000001FF
