:100000000C942E000C944B000C944B000C944B0061
:100010000C944B000C944B000C944B000C94AF05CB
:100020000C944B000C944B000C944B000C944B0024
:100030000C944B000C944B000C944B000C944B0014
:100040000C944B000C944B000C944B000C944B0004
:100050000C944B000C944B000C944B0011241FBECD
:10006000CFEFD0E1DEBFCDBF11E0A0E0B1E0E6E729
:10007000F9E102C005900D92A032B107D9F721E055
:10008000A0E2B1E001C01D92A133B207E1F70E94E6
:10009000DE070C94B90C0C94000080E00C946D0108
:1000A00081E00C946D011F93CF93DF93182F813063
:1000B00009F46195062E000C770B880B990B0E94B2
:1000C000DB082AE939E949E95EE30E94670920E093
:1000D00030E04EEF52E40E9437080E94A3086E39C8
:1000E000710514F06DE970E0EB016136710514F4EF
:1000F000C1E6D0E06C2F812F0E940706CE01DF9170
:10010000CF911F9108958F929F92AF92BF92CF92FD
:10011000DF92EF92FF920F931F93CF93DF9390E0C4
:10012000C62FD0E06C01CC1ADD0AE42EF12C022F90
:1001300010E0C81BD90BC701801B910BB601681BCF
:10014000790B072E000C880B990B0E94DB082FE619
:1001500032E143E05CE30E9467094B015C01B601B8
:10016000DD0C880B990B0E94DB082AE037ED43E297
:100170005DE30E9467099B01AC01C501B4010E94C7
:10018000370820E030E040E751E40E9437080E9441
:10019000AA08D62E0E191F09BE01601B710B072E6F
:1001A000000C880B990B0E94DB082FE632E143E03C
:1001B0005CE30E9467094B015C01BE01DD0F880B07
:1001C000990B0E94DB082AE037ED43E25DE30E94D1
:1001D00067099B01AC01C501B4010E94370820E00A
:1001E00030E040E751E40E9437080E94AA08962FA9
:1001F0008D2DDF91CF911F910F91FF90EF90DF90A8
:10020000CF90BF90AF909F908F900895BF92CF9264
:10021000DF92EF92FF920F931F93CF93DF93CDB7AF
:10022000DEB760970FB6F894DEBF0FBECDBF182FB4
:10023000C92E062FB42E0E9449051F920F931F92BC
:100240001F9300E011E01F930F931F9288E0D82EB8
:10025000DF92CE0101967C019F938F930E94D40977
:100260001F92BF921F92CF921F930F931F92DF9204
:100270008E01075F1F4F1F930F930E94D40960E008
:1002800080E00E94B403C7010E94A60461E080E000
:100290000E94B403C8010E94A6040FB6F894DEBF02
:1002A0000FBECDBF60960FB6F894DEBF0FBECDBFB8
:1002B000DF91CF911F910F91FF90EF90DF90CF9042
:1002C000BF900895EAE7F0E0808187688083ECE7DB
:1002D000F0E0808180668083089590917C00987F13
:1002E00090937C0090917C00892B80937C0080917E
:1002F0007A00806480937A0080917A0086FDFCCF3A
:100300008091790008958DB18F7C8DB985E08A95B3
:10031000F1F700006D9A759885E08A95F1F7000075
:100320006C9A749885E08A95F1F7000008956C98AE
:1003300085E08A95F1F700006D9885E08A95F1F7E0
:10034000000008956D9885E08A95F1F700006599A1
:100350000DC06C9885E08A95F1F700006C9A74984E
:1003600085E08A95F1F70000659BF3CF6C980895BE
:100370006C9885E08A95F1F700006C9A749885E096
:100380008A95F1F7000008951F93CF93DF93C82F4C
:10039000D62F142F0E94A2010E94830187E013C070
:1003A0006D9895E09A95F1F700006C9895E09A9514
:1003B000F1F700006C9A749895E09A95F1F70000B7
:1003C000CC0F815029F0C6FDEBCF6D9A7598E9CF1F
:1003D0006D9A759885E08A95F1F700006C9895E024
:1003E0009A95F1F700006C9A749885E08A95F1F778
:1003F00000006D9895E09A95F1F700006C9865996A
:100400004BC085E08A95F1F700006C9A749895E0EE
:100410009A95F1F7000088E014C06D9A759895E000
:100420009A95F1F700006C9895E09A95F1F7000025
:100430006C9A749895E09A95F1F70000DD0F815061
:1004400021F0D7FFEACF6D98EACF6D9885E08A95C5
:10045000F1F700006C9865991AC095E09A95F1F74C
:1004600000006C9A749885E08A95F1F700001123DA
:1004700051F06C9895E09A95F1F700006D9885E041
:100480008A95F1F70000DF91CF911F91089582E1E5
:1004900091E00E94A604FFCF86E091E00E94A604AE
:1004A000FFCFFC016623D1F14FEF460F50E04F5FC5
:1004B0005F4F480F591F908128E016C06D9A7598BC
:1004C00085E08A95F1F700006C9885E08A95F1F750
:1004D00000006C9A749885E08A95F1F7000090818D
:1004E000990F9083215021F097FFE8CF6D98E8CFC6
:1004F00031966D9885E08A95F1F700006C986599C2
:1005000018C085E08A95F1F700006C9A749885E030
:100510008A95F1F700004E175F0769F66C9885E041
:100520008A95F1F700006D9885E08A95F1F7000053
:1005300008958FE091E00E94A604FFCF0F931F93D0
:10054000CF93DF93082FEB01142F0E94830187E0E4
:1005500013C06D9895E09A95F1F700006C9895E0BE
:100560009A95F1F700006C9A749895E09A95F1F7D6
:100570000000000F815029F006FDEBCF6D9A7598B1
:10058000E9CF6D9885E08A95F1F700006C9895E0C9
:100590009A95F1F700006C9A749885E08A95F1F7C6
:1005A00000006D9895E09A95F1F700006C986599B8
:1005B0005AC085E08A95F1F700006C9A749895E02E
:1005C0009A95F1F700006D9885E08A95F1F70000A3
:1005D0001123B1F12FEF210F30E02F5F3F4F2C0F90
:1005E0003D1F98E08881880F88836C9885E08A9504
:1005F000F1F70000659B03C088818160888385E0F6
:100600008A95F1F700006C9A749885E08A95F1F765
:100610000000915039F76D9A759895E09A95F1F729
:1006200000006C9885E08A95F1F700006C9A749848
:1006300095E09A95F1F7000021962C173D0789F671
:1006400085E08A95F1F700006C9895E09A95F1F7AE
:1006500000006D9885E08A95F1F70000DF91CF9159
:100660001F910F91089587E191E00E94A604FFCFAA
:10067000CF93DF931F92CDB7DEB7498340E00E944E
:10068000C40161E0CE0101960E9451020F90DF91FA
:10069000CF9108951F93CF93DF931F92CDB7DEB70D
:1006A000182F41E00E94C40141E0BE016F5F7F4FFF
:1006B000812F0E949E0289810F90DF91CF911F911F
:1006C000089561E08CE10C944A0363E08CE10C94A2
:1006D0004A0365E08CE10C944A038AE08A95F1F7BD
:1006E00000C0449A8AE08A95F1F700C044988AE0F5
:1006F0008A95F1F700C00895F89482B98AE08A9546
:10070000F1F700C0449A8AE08A95F1F700C0449856
:100710008AE08A95F1F700C0789408958F98F8944C
:1007200082B98AE08A95F1F700C0449A8AE08A95F6
:10073000F1F700C044988AE08A95F1F700C07894F8
:1007400008958F9AF89482B98AE08A95F1F700C0EB
:10075000449A8AE08A95F1F700C044988AE08A9525
:10076000F1F700C078940895803110F4623008F0F9
:1007700008956E5F6295660F660F607C860F8F9896
:10078000F89482B98AE08A95F1F700C0449A8AE029
:100790008A95F1F700C044988AE08A95F1F700C085
:1007A000789485EC8A95F1F7000008953C9A879A31
:1007B0008FEF81B98FE19EE40197F1F700C000004F
:1007C0008F98F89488E382B99AE09A95F1F700C07F
:1007D000449AEAE0EA95F1F700C04498FAE0FA9505
:1007E000F1F700C07894EFE7F2E03197F1F700C03D
:1007F00000008F98F89482B9FAE0FA95F1F700C0FA
:10080000449A9AE09A95F1F700C04498EAE0EA9594
:10081000F1F700C07894EFE7F2E03197F1F700C00C
:1008200000008F98F89482B9FAE0FA95F1F700C0C9
:10083000449A9AE09A95F1F700C04498EAE0EA9564
:10084000F1F700C07894EFE7F2E03197F1F700C0DC
:1008500000008F98F89498E092B9FAE0FA95F1F7D1
:1008600000C0449A9AE09A95F1F700C04498EAE0F3
:10087000EA95F1F700C07894EFE7F2E03197F1F7ED
:1008800000C000008F98F89491E092B9FAE0FA95D0
:10089000F1F700C0449A9AE09A95F1F700C04498A5
:1008A000EAE0EA95F1F700C07894EFE7FEE33197CC
:1008B000F1F700C000008F98F89496E092B9FAE042
:1008C000FA95F1F700C0449A9AE09A95F1F700C0C2
:1008D0004498EAE0EA95F1F700C07894EFE7F2E097
:1008E0003197F1F700C000008F98F89482B9FAE0D0
:1008F000FA95F1F700C0449A8AE08A95F1F700C0B2
:1009000044989AE09A95F1F700C07894EFE8F1E006
:100910003197F1F700C000008F98F8948CE082B90D
:10092000FAE0FA95F1F700C0449A8AE08A95F1F767
:1009300000C044989AE09A95F1F700C07894EFE8E7
:10094000F1E03197F1F700C000000895DC019C91BF
:10095000992301F120E08F9AF89492B98AE08A9560
:10096000F1F700C0449A9AE09A95F1F700C04498D4
:100970008AE08A95F1F700C078948FE792E00197BA
:10098000F1F700C000002F5FFD01E20FF11D908123
:100990009111E1CF08951F93CF93DF939C01892B91
:1009A00009F45AC045E011E0EFE0F7E2CAE0D0E018
:1009B000C901BF016F5F7F4F0E940808662349F19C
:1009C000E217F30770F5605D8F9AF89462B9BAE0A8
:1009D000BA95F1F700C0449A2AE02A95F1F700C0D1
:1009E0004498AAE0AA95F1F700C07894AFE7B2E086
:1009F0001197F1F700C0000010E09C01CF01BE018B
:100A00000E941C08FB01415099F6DF91CF911F9184
:100A10000895E217F30718F41111EFCFD4CF111195
:100A2000EDCF605D8F9AF89462B9BAE0BA95F1F7AC
:100A300000C0449A8AE08A95F1F700C044989AE091
:100A40009A95F1F700C07894AFE7B2E01197F1F70B
:100A500000C0000010E0D2CF8F9AF89480E382B9F2
:100A60002AE02A95F1F700C0449A8AE08A95F1F7C6
:100A700000C044989AE09A95F1F700C07894AFE7E7
:100A8000B2E01197F1F700C00000DF91CF911F9104
:100A900008958F98F89481E082B98AE08A95F1F7F9
:100AA00000C0449A9AE09A95F1F700C044988AE011
:100AB0008A95F1F700C078948FE79EE30197F1F7EC
:100AC00000C0000008955D9A5C980895382F262F85
:100AD0004FEF6403C001112464E670E00E941C081B
:100AE000311107C06093B300121664F45C9A5D98EC
:100AF000089567BD12161CF45E9A5F9808955F9A78
:100B00005E9808950C946305CF93DF93C3EBD0E018
:100B100018820E94630517BC5F9A5E9884B1806951
:100B200084B98AB1806F8AB9E0EBF0E08081886691
:100B3000808380818260808384B5886684BD84B52B
:100B4000826084BD8AE087BD8883DF91CF9108955C
:100B50005C9A5D982C9A5F9A5E982F9A08951F92DE
:100B60000F920FB60F9211242F933F934F935F93E1
:100B70008F939F93EF93FF9340912001542F5695AD
:100B8000852F90E021E030E001C0220F5A95EAF76E
:100B900040FD27C04091880050918900880F991F1F
:100BA000FC01E75DFE4F80819181840F951F90933A
:100BB00089008093880088B1282B28B98091200172
:100BC0008F5F877080932001FF91EF919F918F91AC
:100BD0005F914F913F912F910F900FBE0F901F90FB
:100BE00018954091880050918900880F991FFC0149
:100BF000EF5DFE4F80819181840F951F9093890056
:100C00008093880088B12095282328B9D7CF90E019
:100C10002AE0629FB00111246C53764F880F991F10
:100C2000FC01E75DFE4F718360838F5D9E4F24ED75
:100C300030E3261B370BFC01318320830895A9E2A2
:100C4000B1E024EC39E011963C932E93E1E2F1E01F
:100C500080E197E29183808313963C932E931297C1
:100C60009383828315963C932E9314979583848364
:100C700017963C932E9316979783868387B18F6040
:100C800087B9E1E8F0E01082808182608083EFE63E
:100C9000F0E0808182608083789408958CB18095A3
:100CA000881F8827881F0895282F30E08E3010F085
:100CB00080E00895F901E15AF94F0C9430087C0660
:100CC0007C06870687069206970697069906990678
:100CD0009906A4066D066D06780683B190E029504A
:100CE000310902C0959587952A95E2F7817008959C
:100CF00083B18695817008952CB130E0A90102C0BE
:100D0000559547958A95E2F7CA018170089582B397
:100D100090E02F5F3F4F02C0959587952A95E2F7A7
:100D2000817008958CB186FB882780F9089523B1DE
:100D3000E4CF86B190E02250310902C095958795A5
:100D40002A95E2F78170089583B181700895282F64
:100D500030E08E30B0F4F901E055F94F0C943008D2
:100D6000D106D106DD06DD06EB06FD06FD06EF0623
:100D7000EF06EF060907C206C206BE06611165C08E
:100D8000219808952950310981E090E001C0880F31
:100D90002A95EAF794B1662309F43FC0892B84B9F8
:100DA000089521E030E001C0220F8A95EAF78DB165
:100DB0006623C9F1282B2DB908952F5F3F4F81E09D
:100DC00090E001C0880F2A95EAF793B3662379F182
:100DD000892B83BB0895662391F16E9A0895225062
:100DE000310981E090E001C0880F2A95EAF797B1B8
:100DF000662309F1892B87B9089521E030E001C00D
:100E0000220F8A95EAF784B16623D9F0282B24B9FA
:100E10000895662331F0209A08958095892384B936
:100E2000089520980895209528232DB90895809538
:100E3000892383BB08958095892387B908956E9887
:100E400008952095282324B90895219A0895282FDC
:100E500030E08E30B0F4F901E05DF84F0C943008CA
:100E6000510751075D075D076B077D077D076F071A
:100E70006F076F078907420742073E07611165C088
:100E8000299808952950310981E090E001C0880F28
:100E90002A95EAF795B1662309F43FC0892B85B9F5
:100EA000089521E030E001C0220F8A95EAF78EB163
:100EB0006623C9F1282B2EB908952F5F3F4F81E09B
:100EC00090E001C0880F2A95EAF794B3662379F180
:100ED000892B84BB0895662391F1769A0895225058
:100EE000310981E090E001C0880F2A95EAF798B1B6
:100EF000662309F1892B88B9089521E030E001C00B
:100F0000220F8A95EAF785B16623D9F0282B25B9F7
:100F10000895662331F0289A08958095892385B92C
:100F2000089528980895209528232EB9089580952E
:100F3000892384BB08958095892388B9089576987C
:100F400008952095282325B90895299A0895811197
:100F500004C0613031F0A0980895613021F0A1986B
:100F60000895A09A0895A19A0895882311F0A19A4E
:100F70000895A09A0895882311F0A1980895A09843
:100F80000895529A83B3836083BB779A0E9462016B
:100F90000E94D6030E941F060E94840541E06AE277
:100FA0008CE10E9438032FEF81EE94E021508040C5
:100FB0009040E1F700C000000C94A2010E94C1071C
:100FC0000E9462010E94D60300E010E00E944D00E2
:100FD000D82F0E945000C82F202F412F682F8D2F0F
:100FE0000E9483008C01682F80E00E945300612FD3
:100FF00081E00E9453004C2F6D2FC8010E94060112
:101000008FE39CE90197F1F700C000008E01DECF6D
:10101000AA1BBB1B51E107C0AA1FBB1FA617B7071E
:1010200010F0A61BB70B881F991F5A95A9F780953A
:101030009095BC01CD01089597FB072E16F40094FE
:1010400007D077FD09D00E94080807FC05D03EF4C0
:10105000909581959F4F0895709561957F4F089564
:10106000EE0FFF1F0590F491E02D09945058BB2717
:10107000AA270E944E080C942D090E941F0938F0DF
:101080000E94260920F039F49F3F19F426F40C94AD
:101090001C090EF4E095E7FB0C941609E92F0E9459
:1010A0003E0958F3BA17620773078407950720F0C3
:1010B00079F4A6F50C9460090EF4E0950B2EBA2F86
:1010C000A02D0B01B90190010C01CA01A00111244E
:1010D000FF27591B99F0593F50F4503E68F11A16FA
:1010E000F040A22F232F342F4427585FF3CF46958B
:1010F00037952795A795F0405395C9F77EF41F16AD
:10110000BA0B620B730B840BBAF09150A1F0FF0F76
:10111000BB1F661F771F881FC2F70EC0BA0F621F62
:10112000731F841F48F4879577956795B795F79552
:101130009E3F08F0B0CF9395880F08F09927EE0FE7
:101140009795879508950E94AA086894B1110C9408
:10115000610908950E94460988F09F5798F0B92FB9
:101160009927B751B0F0E1F0660F771F881F991FDC
:101170001AF0BA95C9F714C0B13091F00E94600915
:10118000B1E008950C946009672F782F8827B85F25
:1011900039F0B93FCCF3869577956795B395D9F734
:1011A0003EF490958095709561957F4F8F4F9F4F3E
:1011B0000895E89409C097FB3EF49095809570954A
:1011C00061957F4F8F4F9F4F9923A9F0F92F96E993
:1011D000BB279395F695879577956795B795F11108
:1011E000F8CFFAF4BB0F11F460FF1BC06F5F7F4FA5
:1011F0008F4F9F4F16C0882311F096E911C07723B7
:1012000021F09EE8872F762F05C0662371F096E8BF
:10121000862F70E060E02AF09A95660F771F881F8E
:10122000DAF7880F9695879597F9089597F99F674C
:1012300080E870E060E008959FEF80EC089500245E
:101240000A941616170618060906089500240A942B
:1012500012161306140605060895092E0394000CB1
:1012600011F4882352F0BB0F40F4BF2B11F460FF40
:1012700004C06F5F7F4F8F4F9F4F089557FD905869
:10128000440F551F59F05F3F71F04795880F97FB4A
:10129000991F61F09F3F79F0879508951216130604
:1012A0001406551FF2CF4695F1DF08C01616170633
:1012B0001806991FF1CF8695710561050894089568
:1012C000E894BB2766277727CB0197F908950E94FA
:1012D0007A090C942D090E941F0938F00E942609F2
:1012E00020F0952311F00C9416090C941C0911247C
:1012F0000C9461090E943E0970F3959FC1F3950F0C
:1013000050E0551F629FF001729FBB27F00DB11D89
:10131000639FAA27F00DB11DAA1F649F6627B00D19
:10132000A11D661F829F2227B00DA11D621F739F02
:10133000B00DA11D621F839FA00D611D221F749F10
:101340003327A00D611D231F849F600D211D822F57
:10135000762F6A2F11249F5750409AF0F1F088237E
:101360004AF0EE0FFF1FBB1F661F771F881F9150AB
:101370005040A9F79E3F510580F00C9416090C943B
:1013800061095F3FE4F3983ED4F3869577956795BE
:10139000B795F795E7959F5FC1F7FE2B880F911DD5
:1013A0009695879597F90895AEE0B0E0EAEDF9E0FB
:1013B0000C94900C0D891E898F89988D26E02C83C2
:1013C0001A83098397FF02C080E090E801979E830B
:1013D0008D83AE01455E5F4F698D7A8DCE0101969A
:1013E0000E94040A4D815E8157FD0AC02F81388515
:1013F000421753070CF49A01020F131FF8011082D1
:101400002E96E4E00C94AC0CABE0B0E0EAE0FAE03D
:101410000C94820C7C013B018A01FC01178216822C
:10142000838181FFC8C1CE0101965C01F7019381E0
:10143000F30193FD859193FF81913F01882309F486
:1014400053C1853239F493FD859193FF81913F011A
:10145000853229F4B70190E00E94F40BE7CF912C7C
:10146000212C312CFFE1F31538F08B3211F190F47F
:10147000803209F1833229F137FC3CC020ED280F7E
:101480002A3050F536FE20C08AE0989E200D1124A7
:10149000922E06C08D3291F0803371F7689430F847
:1014A000F30193FD859193FF81913F018111DACF83
:1014B00021C0689431F8689432F8F2CF689433F818
:1014C000EFCF689434F8ECCFEAE02E9E200D112483
:1014D000222E689435F8E4CF8E3229F436FC04C10C
:1014E000689436F8DDCF8C3619F4689437F8D8CF85
:1014F0008836B1F2982F9F7D95549330E0F0833673
:10150000A1F18337C1F1833509F063C02801F2E00E
:101510004F0E511CF801C080D180692D70E036FC5F
:1015200002C06FEF7FEFC6010E94DE0B4C01689492
:1015300037F882010AC00C5F1F4FFFE3F98388244C
:101540008394912C6501E89437F833FE2DC0522C1A
:101550008114910471F5552009F468CFB70180E238
:1015600090E00E94F40B5A94F6CFF80180818983B1
:101570000E5F1F4FE4CF2801F2E04F0E511CF8011F
:10158000C080D180692D70E036FC02C06FEF7FEF24
:10159000C6010E94E90B4C018201D5CFB70180E260
:1015A00090E00E94F40B2A942814190409F0B0F773
:1015B000CECFF60137FC859137FE81916F01B701DF
:1015C00090E00E94F40B51105A94F1E08F1A9108A8
:1015D000BFCF843619F0893609F077C0F80137FE9D
:1015E0006BC060817181828193810C5F1F4FF32DED
:1015F000FF763F2E97FF09C0909580957095619575
:101600007F4F8F4F9F4F689437F82AE030E0A50155
:101610000E94240CC82ECA188C2C432C36FE0CC0F9
:10162000E89440F8C91440F434FE05C032FC03C00D
:10163000F32DFE7E4F2E892C44FE95C0FE01EC0D4D
:10164000F11D8081803309F087C0242D297E422E30
:10165000842D8870582E43FC95C040FE8FC09C2C72
:10166000821418F42C0C922C981844FE91C0B701E7
:1016700080E390E00E94F40B42FE09C088E790E00E
:1016800041FE02C088E590E0B7010E94F40BC91446
:1016900008F48AC0CA94D12C9FEFC91AD90ACA0C7F
:1016A000DB1CF60182916F01B70190E00E94F40B00
:1016B000AC14BD04B1F74FCF60817181072E000CCF
:1016C000880B990B0E5F1F4F92CFD32CE894D4F860
:1016D0002AE030E0853739F1232D297FD22E8F364D
:1016E00001F148F48835A9F0F701868197812B969E
:1016F000E2E10C949E0C803749F08837A9F7D4FEBC
:1017000002C06894D2F820E130E00DC06894D4F8AB
:10171000F6CF34FE03C0822F8660D82E20E132E05F
:1017200002C028E030E0F801D7FE0FC0608171816F
:10173000828193810C5F1F4FA5010E94240CC82E4B
:10174000CA183D2CE89437F867CF6081718190E02A
:1017500080E00E5F1F4FF0CF42FC02C0839478CF31
:101760008394839475CF842D867809F471CFF6CF56
:10177000B70180E290E00E94F40B83948214C0F3DE
:10178000512C73CF522C5818821408F46ECFF8CF16
:10179000842D867809F47BCF8BE241FE80E247FC02
:1017A0008DE2B70190E071CFB70180E390E00E9435
:1017B000F40B9A946CCF8FEF9FEF99CFFC010590BB
:1017C000615070400110D8F7809590958E0F9F1F43
:1017D0000895FC016150704001900110D8F7809588
:1017E00090958E0F9F1F08950F931F93CF93DF93B4
:1017F000182F092FEB018B8181FD09C01FEF0FEF1F
:10180000812F902FDF91CF911F910F91089582FF2B
:1018100014C02E813F818C819D81281739073CF4AB
:10182000E881F981CF0101969983888310838E81A5
:101830009F8101969F838E83E3CFE885F985812F71
:101840000995892BA1F3DACFFA01AA27283051F1A3
:10185000203181F1E8946F936E7F6E5F7F4F8F4FE1
:101860009F4FAF4FB1E03ED0B4E03CD0670F781F40
:10187000891F9A1FA11D680F791F8A1F911DA11D25
:101880006A0F711D811D911DA11D20D009F468945E
:101890003F912AE0269F11243019305D3193DEF606
:1018A000CF010895462F4770405D4193B3E00FD0BC
:1018B000C9F7F6CF462F4F70405D4A3318F0495DA7
:1018C00031FD4052419302D0A9F7EACFB4E0A6958A
:1018D0009795879577956795BA95C9F700976105AC
:1018E000710508959B01AC010A2E06945795479502
:1018F00037952795BA95C9F7620F731F841F951FF7
:10190000A01D08952F923F924F925F926F927F9207
:101910008F929F92AF92BF92CF92DF92EF92FF92FF
:101920000F931F93CF93DF93CDB7DEB7CA1BDB0BAB
:101930000FB6F894DEBF0FBECDBF09942A88398850
:1019400048885F846E847D848C849B84AA84B98457
:10195000C884DF80EE80FD800C811B81AA81B98163
:10196000CE0FD11D0FB6F894DEBF0FBECDBFED0177
:061970000895F894FFCF7A
:1019760025643A256400616464724E41434B0077E6
:10198600725F4E41434B00726561644E41434B00AA
:00000001FF
