:100000000C9442000C945F000C945F000C945F0011
:100010000C945F000C945F000C945F000C94580BE0
:100020000C945F000C945F000C945F000C945F00D4
:100030000C945F000C945F000C945F000C945F00C4
:100040000C945F000C945F000C945F000C945F00B4
:100050000C945F000C945F000C945F0007634236C1
:10006000B79BD8A71A39685618AEBAAB558C1D3C49
:10007000B7CC5763BD6DEDFD753EF6177231BF000D
:100080000000803F11241FBECFEFD0E1DEBFCDBF07
:1000900011E0A0E0B1E0ECEAF8E202C005900D92B8
:1000A000A834B107D9F729E0A8E4B1E001C01D9256
:1000B000A53DB207E1F70E94870D0C9454140C94EF
:1000C0000000CF93C62F682F80E00E94FC056C2FA4
:1000D00081E0CF910C94FC05CF92DF92EF92FF92DA
:1000E0000F931F93CF93DF938C01EB016B0184E49B
:1000F000C80ED11CEE24EA942FE7F22E0E94FC10C9
:10010000B7010E94A10D072E000C880B990B0E94CD
:100110000C0F6E877F87888B998B0E94FC10B7012C
:100120000E94A10D072E000C880B990B0E940C0F4A
:100130006A8B7B8B8C8B9D8B0E94FC10B7010E947D
:10014000A10D072E000C880B990B0E940C0F6A8FD3
:100150007B8F8C8F9D8FA296CC15DD0579F6E801FB
:100160002E966801EAE1CE0ED11CEE24EA949FE7B8
:10017000F92E0E94FC10B7010E94A10D072E000C61
:10018000880B990B0E940C0F69937993899399932B
:10019000CC15DD0571F70E94FC10B7010E94A10D7E
:1001A000072E000C880B990B0E940C0FF801628F30
:1001B000738F848F958FE801E0966801FCE3CF0E82
:1001C000D11CEE24EA948FE7F82E0E94FC10B701B0
:1001D0000E94A10D072E000C880B990B0E940C0F9A
:1001E0006993799389939993CC16DD0671F70E94F0
:1001F000FC10B7010E94A10D072E000C880B990B73
:100200000E940C0FF80164AF75AF86AF97AFDF9116
:10021000CF911F910F91FF90EF90DF90CF900895B5
:100220004F925F926F927F928F929F92AF92BF9206
:10023000CF92DF92EF92FF920F931F93CF93DF93B2
:10024000C62F682F70E090E080E00E940C0F20E045
:1002500030E04FE753E40E94280E4B015C016C2F05
:1002600070E090E080E00E940C0F20E030E04FE76B
:1002700053E40E94280E6B017C01CFE5D9E02E8566
:100280003F8548895989C501B4010E94351020E095
:1002900030E0A9010E94BC0D2B013C012A893B8959
:1002A0004C895D89C701B6010E943510A3019201F6
:1002B0000E94BC0D2A8D3B8D4C8D5D8D0E94BC0D26
:1002C00090580E94A20E20E030E040E85FE30E94D8
:1002D000BC0D9B01AC0160E070E080E89FE30E94F0
:1002E000280E6E8F7F8F88A399A3A29689E0C53CC4
:1002F000D80729F689E2A82E89E0B82E8501CFE536
:10030000D9E0C12CD12C7601F801619171918191D4
:1003100091918F012E8D3F8D48A159A10E943510DA
:100320009B01AC01C701B6010E94BC0D6B017C01B1
:10033000A296F9E0C53CDF0739F7F501248535853C
:10034000468557850E94BC0D90580E94A20E20E061
:1003500030E040E85FE30E94BC0D9B01AC0160E02F
:1003600070E080E89FE30E94280EF501608B718B9E
:10037000828B938BF2E2AF0EB11C8DE6A81689E05A
:10038000B80609F0BBCF20E030E04FE753E46091BE
:100390005B0970915C0980915D0990915E090E94F2
:1003A00035100E94DB0EC62F20E030E04FE753E40B
:1003B0006091390970913A0980913B0990913C090B
:1003C0000E9435100E94DB0E862F9C2FDF91CF916B
:1003D0001F910F91FF90EF90DF90CF90BF90AF9063
:1003E0009F908F907F906F905F904F9008952F9285
:1003F0003F924F925F926F927F928F929F92AF92B5
:10040000BF92CF92DF92EF92FF920F931F93CF9301
:10041000DF93CDB7DEB7CA54D1090FB6F894DEBF6B
:100420000FBECDBF282F30E027963FAF2EAF2797C6
:10043000B901330F880B990B0E940C0F9B01AC0183
:100440006CEE71E588EB9DE30E94280E2B966CAF55
:100450007DAF8EAF9FAF2B976FE579E08BE199E091
:100460000E946C0027968EAD9FAD2797892B09F4CB
:10047000C0C225961FAE1EAE25978DEC9CECACEC51
:10048000BDE38FA798ABA9ABBAAB0091480110911F
:100490004901DE019196BAA3A9A3FE017996FCA3B6
:1004A000EBA3101611060CF083C2A9E4B1E0BEA7BD
:1004B000ADA721961FAE1EAE2197EDA5FEA5128118
:1004C000612F70E090E080E00E940C0F20E030E0AF
:1004D0004FE753E40E94280E6BAB7CAB8DAB9EAB19
:1004E000ADA5BEA513960C91602F70E090E080E062
:1004F0000E940C0F20E030E04FE753E40E94280EEA
:100500006FAB78AF89AF9AAF2196EEADFFAD219773
:10051000EF2B09F488C2ADA5BEA511962C911197B9
:100520004C91602F812F0E942C06192F682F70E0AC
:1005300090E080E00E940C0F20E030E04FE753E4B1
:100540000E94280E2B013C01612F70E090E080E0BA
:100550000E940C0F20E030E04FE753E40E94280E89
:100560006DA37EA38FA398A78FE5282E89E0382E50
:10057000FE013D965F018101D8011E962D913D91AE
:100580004D915C9151976BA97CA98DA99EA90E9460
:10059000351020E030E0A9010E94BC0D6B017C0108
:1005A000F80122893389448955896FA978AD89ADCD
:1005B0009AAD0E943510A70196010E94BC0DD8018A
:1005C0005A962D913D914D915C915D970E94BC0D85
:1005D00090580E94A20E20E030E040E85FE30E94C5
:1005E000BC0D9B01AC0160E070E080E89FE30E94DD
:1005F000280EF801668F778F80A391A3D5016D93A4
:100600007D938D939D935D010E5D1F4FB9E0053C79
:100610001B0709F0B1CFE9E2F9E0FAA7E9A76F01FA
:1006200076010FE519E0812C912C5401D7016D91D1
:100630007D918D919D917D01F801268D378D40A191
:1006400051A10E9435109B01AC01C501B4010E946B
:10065000BC0D4B015C010E5D1F4FF9E0053C1F070F
:1006600029F7D6011C962D913D914D915C911F97D4
:100670000E94BC0D90580E94A20E20E030E040E89D
:100680005FE30E94BC0D9B01AC0160E070E080E87C
:100690009FE30E94280EF601608B718B828B938BF7
:1006A000F2E2CF0ED11C2DE6C21629E0D20609F0E7
:1006B000B7CFC0903909D0903A09E0903B09F0904B
:1006C0003C09A3019201C701B6010E94BB0DA7011D
:1006D00096010E9435104B015C01A701960160E074
:1006E00070E080E89FE30E94BB0D9B01AC01C50157
:1006F000B4010E9435104B015C01898E9A8EAB8E3D
:10070000BC8EC0905B09D0905C09E0905D09F090D0
:100710005E092DA13EA14FA158A5C701B6010E94B7
:10072000BB0DA70196010E9435102B013C01A701CA
:10073000960160E070E080E89FE30E94BB0D9B01A2
:10074000AC01C301B2010E9435106BAF7CAF8DAF1D
:100750009EAF6D8F7E8F8F8F98A3CE0101962396CB
:100760009FAF8EAF23979CA78BA70FE519E0E9E217
:10077000F9E0FEA3EDA3ADA1BEA16D917D918D9198
:100780009D91BEA3ADA3A50194010E94351020E068
:1007900030E0A9010E94BC0D6B017C01F801468C80
:1007A000578C60A071A0ADA1BEA15E962D913D9128
:1007B0004D915C9191976BAD7CAD8DAD9EAD0E94DE
:1007C0003510A70196010E94BC0DA30192010E9461
:1007D00035106B017C01A301920160E070E080E8BC
:1007E0009FE30E94BB0D9B01AC01C701B6010E94B3
:1007F0003510EBA5FCA56193719381939193FCA7B0
:10080000EBA70E5D1F4F2DA13EA12553394009F0E6
:10081000B2CFDE015D96BEA3ADA32FA538A949A92D
:100820005AA9C501B4010E9435104B015C01FE01BB
:100830003D967F0109A51AA5F8014190519061905C
:1008400071908F01D7012D913D914D915D917D0169
:100850006F01B4E0CB1AD108C501B4010E94351074
:100860009B01AC01C301B2010E94BB0DF601608384
:100870007183828393832BA13CA12E153F05E1F662
:10088000A5019401A9A5BAA51C966D917D918D91A4
:100890009C911F970E94BB0DE9A5FAA564877587F7
:1008A00086879787B296FAA7E9A729A13AA18DA1D1
:1008B0009EA12817390741F0DC018D909D90AD90E5
:1008C000BD90BEA3ADA3A9CF8BA89CA8ADA8BEA880
:1008D0004FA858AC69AC7AAC23960EAD1FAD2397E8
:1008E000D8012D913D914D915D918D016FA578A914
:1008F00089A99AA90E9435106B017C01AC019B016A
:10090000C501B4010E9435109B01AC01F10166855F
:100910007785808991890E94BB0DD1011E966D93C8
:100920007D938D939C935197A7019601C301B201CA
:100930000E9435109B01AC01F101628973898489A1
:1009400095890E94BB0DD10152966D937D938D9335
:100950009C935597A70196015A966D917D918D9123
:100960009C915D970E94BB0DF101628F738F848F04
:10097000958FF2E22F0E311C25EC221629E032066B
:1009800009F0AECF21968EAD9FAD219701962196AD
:100990009FAF8EAF2197ADA5BEA51296BEA7ADA7FE
:1009A0000091480110914901801791070CF485CD01
:1009B0002B962CAD3DAD4EAD5FAD2B976FA578A9B5
:1009C00089A99AA90E94BB0D6FA778AB89AB9AAB96
:1009D0002596EEADFFAD259731962596FFAFEEAF8C
:1009E000259727962EAD3FAD27972E173F0709F085
:1009F00058CDC65BDF4F0FB6F894DEBF0FBECDBF3C
:100A0000DF91CF911F910F91FF90EF90DF90CF90EA
:100A1000BF90AF909F908F907F906F905F904F901E
:100A20003F902F90089520914C0140914B01602FF1
:100A3000812F0E942C06192F79CDD0E0C0E060E014
:100A400080E00E945D0984E091E00E944F0A0E94CC
:100A5000F605182F0E94F905082F2D2F4C2F682F0F
:100A6000812F0E942C06C92F682F80E00E94FC0570
:100A70006C2F81E00E94FC050E94F70B813019F079
:100A8000D02FC12FDCCF0E94F20A0E94F20A60E050
:100A900080E00E945D098CE091E00E944F0A109274
:100AA0004901109248012FEF81EE94E021508040DF
:100AB0009040E1F700C0000009C08FEF90E722E00E
:100AC000815090402040E1F700C000000E94F70BE9
:100AD000813009F44BC08091480190914901883ED2
:100AE00093405CF70E94F605C82F0E94F9052091FB
:100AF000480130914901F901EE0FFF1FE55BFE4F00
:100B0000C08381832F5F3F4F309349012093480179
:100B1000D4CF8C2F0E94F7010E94F20A60E080E09F
:100B20000E945D098EE191E00E944F0A1BC00E9465
:100B3000F605C82F0E94F905682F8C2F0E9410011E
:100B4000C92F682F80E00E94FC056C2F81E00E9475
:100B5000FC058FEF96E721E0815090402040E1F7BF
:100B600000C000000E94F70B813009F70E94F20AD2
:100B700060E080E00E945D0985E191E00E944F0AFB
:100B8000D0E0C0E02AC00E940A0996E0980F953094
:100B900050F0863040F096E4980F923418F5CA3041
:100BA000D10508F02A970E94F20A60E080E00E94D6
:100BB0005D0985E191E00E944F0A61E080E00E94BA
:100BC0005D09CE010E94740A8FEF99E628E18150F9
:100BD00090402040E1F700C000000E94F70B8130F8
:100BE00091F697CF8D33F8F62A96DDCF80E00C94FE
:100BF000160781E00C9416071F93CF93DF93182FED
:100C0000813009F46195062E000C770B880B990B47
:100C10000E940C0F2AE939E949E95EE30E94351088
:100C200020E030E04EEF52E40E94BC0D0E94D40E52
:100C30006E39710514F06DE970E0EB0161367105F4
:100C400014F4C1E6D0E06C2F812F0E94B00BCE01CE
:100C5000DF91CF911F9108958F929F92AF92BF9293
:100C6000CF92DF92EF92FF920F931F93CF93DF9378
:100C700090E0C62FD0E06C01CC1ADD0AE42EF12CF6
:100C8000022F10E0C81BD90BC701801B910BB601C6
:100C9000681B790B072E000C880B990B0E940C0F18
:100CA0002FE632E143E05CE30E9435104B015C012A
:100CB000B601DD0C880B990B0E940C0F2EEA37E46D
:100CC00041E65DE30E9435109B01AC01C501B40112
:100CD0000E94BC0D20E030E040E751E40E94BC0DD2
:100CE0000E94DB0ED62E0E191F09BE01601B710B70
:100CF000072E000C880B990B0E940C0F2FE632E197
:100D000043E05CE30E9435104B015C01BE01DD0F46
:100D1000880B990B0E940C0F2EEA37E441E65DE345
:100D20000E9435109B01AC01C501B4010E94BC0DAD
:100D300020E030E040E751E40E94BC0D0E94DB0E51
:100D4000962F8D2DDF91CF911F910F91FF90EF90F6
:100D5000DF90CF90BF90AF909F908F900895BF92FB
:100D6000CF92DF92EF92FF920F931F93CF93DF9377
:100D7000CDB7DEB760970FB6F894DEBF0FBECDBF1C
:100D8000182FC92E062FB42E0E94F20A1F920F931D
:100D90001F921F9308E211E01F930F931F9288E0A8
:100DA000D82EDF92CE0101967C019F938F930E94F3
:100DB0000C111F92BF921F92CF921F930F931F92FD
:100DC000DF928E01075F1F4F1F930F930E940C113C
:100DD00060E080E00E945D09C7010E944F0A61E067
:100DE00080E00E945D09C8010E944F0A0FB6F89486
:100DF000DEBF0FBECDBF60960FB6F894DEBF0FBE4C
:100E0000CDBFDF91CF911F910F91FF90EF90DF90B9
:100E1000CF90BF900895EAE7F0E0808187688083F3
:100E2000ECE7F0E0808180668083089590917C00FB
:100E3000987F90937C0090917C00892B80937C001C
:100E400080917A00806480937A0080917A0086FD98
:100E5000FCCF8091790008958DB18F7C8DB985E0AC
:100E60008A95F1F700006D9A759885E08A95F1F7FB
:100E700000006C9A749885E08A95F1F70000089557
:100E80006C9885E08A95F1F700006D9885E08A9569
:100E9000F1F7000008956D9885E08A95F1F700005C
:100EA00065990DC06C9885E08A95F1F700006C9A01
:100EB000749885E08A95F1F70000659BF3CF6C98F4
:100EC00008956C9885E08A95F1F700006C9A749803
:100ED00085E08A95F1F7000008951F93CF93DF9383
:100EE000C82FD62F142F0E944B070E942C0787E093
:100EF00013C06D9895E09A95F1F700006C9895E015
:100F00009A95F1F700006C9A749895E09A95F1F72C
:100F10000000CC0F815029F0C6FDEBCF6D9A75987B
:100F2000E9CF6D9A759885E08A95F1F700006C9885
:100F300095E09A95F1F700006C9A749885E08A958F
:100F4000F1F700006D9895E09A95F1F700006C9824
:100F500065994BC085E08A95F1F700006C9A74980A
:100F600095E09A95F1F7000088E014C06D9A7598A5
:100F700095E09A95F1F700006C9895E09A95F1F755
:100F800000006C9A749895E09A95F1F70000DD0FD7
:100F9000815021F0D7FFEACF6D98EACF6D9885E0B8
:100FA0008A95F1F700006C9865991AC095E09A95BA
:100FB000F1F700006C9A749885E08A95F1F70000CB
:100FC000112351F06C9895E09A95F1F700006D9817
:100FD00085E08A95F1F70000DF91CF911F91089588
:100FE0008AE391E00E944F0AFFCF8EE291E00E94D7
:100FF0004F0AFFCFFC016623D1F14FEF460F50E0BF
:101000004F5F5F4F480F591F908128E016C06D9ABF
:10101000759885E08A95F1F700006C9885E08A95CF
:10102000F1F700006C9A749885E08A95F1F700005A
:101030009081990F9083215021F097FFE8CF6D9810
:10104000E8CF31966D9885E08A95F1F700006C98AD
:10105000659918C085E08A95F1F700006C9A74983C
:1010600085E08A95F1F700004E175F0769F66C98E6
:1010700085E08A95F1F700006D9885E08A95F1F793
:101080000000089587E391E00E944F0AFFCF0F937D
:101090001F93CF93DF93082FEB01142F0E942C078F
:1010A00087E013C06D9895E09A95F1F700006C9871
:1010B00095E09A95F1F700006C9A749895E09A95EE
:1010C000F1F70000000F815029F006FDEBCF6D9A7B
:1010D0007598E9CF6D9885E08A95F1F700006C98D6
:1010E00095E09A95F1F700006C9A749885E08A95DE
:1010F000F1F700006D9895E09A95F1F700006C9873
:1011000065995AC085E08A95F1F700006C9A749849
:1011100095E09A95F1F700006D9885E08A95F1F7D2
:1011200000001123B1F12FEF210F30E02F5F3F4F6F
:101130002C0F3D1F98E08881880F88836C9885E08C
:101140008A95F1F70000659B03C0888181608883E0
:1011500085E08A95F1F700006C9A749885E08A958D
:10116000F1F70000915039F76D9A759895E09A95CE
:10117000F1F700006C9885E08A95F1F700006C9A11
:10118000749895E09A95F1F7000021962C173D0789
:1011900089F685E08A95F1F700006C9895E09A95BC
:1011A000F1F700006D9885E08A95F1F70000DF9176
:1011B000CF911F910F9108958FE391E00E944F0A04
:1011C000FFCFCF93DF931F92CDB7DEB7498340E0C7
:1011D0000E946D0761E0CE0101960E94FA070F9010
:1011E000DF91CF9108951F93CF93DF931F92CDB7D7
:1011F000DEB7182F41E00E946D0741E0BE016F5F2E
:101200007F4F812F0E94470889810F90DF91CF91F6
:101210001F91089561E08CE10C94F30863E08CE188
:101220000C94F30865E08CE10C94F3088AE08A954D
:10123000F1F700C0449A8AE08A95F1F700C044981B
:101240008AE08A95F1F700C00895F89482B98AE09F
:101250008A95F1F700C0449A8AE08A95F1F700C0B8
:1012600044988AE08A95F1F700C0789408958F98A1
:10127000F89482B98AE08A95F1F700C0449A8AE02E
:101280008A95F1F700C044988AE08A95F1F700C08A
:10129000789408958F9AF89482B98AE08A95F1F744
:1012A00000C0449A8AE08A95F1F700C044988AE029
:1012B0008A95F1F700C078940895803110F4623077
:1012C00008F008956E5F6295660F660F607C860F6A
:1012D0008F98F89482B98AE08A95F1F700C0449A11
:1012E0008AE08A95F1F700C044988AE08A95F1F780
:1012F00000C0789485EC8A95F1F7000008953C9A37
:10130000879A8FEF81B98FE19EE40197F1F700C0D2
:1013100000008F98F89488E382B99AE09A95F1F7E3
:1013200000C0449AEAE0EA95F1F700C04498FAE078
:10133000FA95F1F700C07894EFE7F2E03197F1F712
:1013400000C000008F98F89482B9FAE0FA95F1F79E
:1013500000C0449A9AE09A95F1F700C04498EAE0F8
:10136000EA95F1F700C07894EFE7F2E03197F1F7F2
:1013700000C000008F98F89482B9FAE0FA95F1F76E
:1013800000C0449A9AE09A95F1F700C04498EAE0C8
:10139000EA95F1F700C07894EFE7F2E03197F1F7C2
:1013A00000C000008F98F89498E092B9FAE0FA959E
:1013B000F1F700C0449A9AE09A95F1F700C044987A
:1013C000EAE0EA95F1F700C07894EFE7F2E03197B0
:1013D000F1F700C000008F98F89491E092B9FAE01C
:1013E000FA95F1F700C0449A9AE09A95F1F700C097
:1013F0004498EAE0EA95F1F700C07894EFE7FEE35D
:101400003197F1F700C000008F98F89496E092B9F8
:10141000FAE0FA95F1F700C0449A9AE09A95F1F74C
:1014200000C04498EAE0EA95F1F700C07894EFE74D
:10143000F2E03197F1F700C000008F98F89482B97C
:10144000FAE0FA95F1F700C0449A8AE08A95F1F73C
:1014500000C044989AE09A95F1F700C07894EFE8BC
:10146000F1E03197F1F700C000008F98F8948CE01C
:1014700082B9FAE0FA95F1F700C0449A8AE08A95B9
:10148000F1F700C044989AE09A95F1F700C078947B
:10149000EFE8F1E03197F1F700C000000895DC01BA
:1014A0009C91992301F120E08F9AF89492B98AE0F7
:1014B0008A95F1F700C0449A9AE09A95F1F700C036
:1014C00044988AE08A95F1F700C078948FE792E01B
:1014D0000197F1F700C000002F5FFD01E20FF11D41
:1014E00090819111E1CF08951F93CF93DF939C01D9
:1014F000892B09F45AC045E011E0EFE0F7E2CAE0B9
:10150000D0E0C901BF016F5F7F4F0E948D0D662340
:1015100049F1E217F30770F5605D8F9AF89462B9AC
:10152000BAE0BA95F1F700C0449A2AE02A95F1F79B
:1015300000C04498AAE0AA95F1F700C07894AFE7FC
:10154000B2E01197F1F700C0000010E09C01CF015C
:10155000BE010E94A10DFB01415099F6DF91CF9190
:101560001F910895E217F30718F41111EFCFD4CFAC
:101570001111EDCF605D8F9AF89462B9BAE0BA9517
:10158000F1F700C0449A8AE08A95F1F700C04498C8
:101590009AE09A95F1F700C07894AFE7B2E011971E
:1015A000F1F700C0000010E0D2CF8F9AF89480E3EA
:1015B00082B92AE02A95F1F700C0449A8AE08A9518
:1015C000F1F700C044989AE09A95F1F700C078943A
:1015D000AFE7B2E01197F1F700C00000DF91CF91C3
:1015E0001F9108958F98F89481E082B98AE08A95D6
:1015F000F1F700C0449A9AE09A95F1F700C0449838
:101600008AE08A95F1F700C078948FE79EE301970E
:10161000F1F700C0000008955D9A5C980895382F96
:10162000262F4FEF6403C001112464E670E00E948E
:10163000A10D311107C06093B300121664F45C9AD7
:101640005D98089567BD12161CF45E9A5F98089520
:101650005F9A5E9808950C940C0BCF93DF93C3EBC5
:10166000D0E018820E940C0B17BC5F9A5E9884B180
:10167000806984B98AB1806F8AB9E0EBF0E080813B
:101680008866808380818260808384B5886684BD1B
:1016900084B5826084BD8AE087BD8883DF91CF9165
:1016A00008955C9A5D982C9A5F9A5E982F9A089597
:1016B0001F920F920FB60F9211242F933F934F93C7
:1016C0005F938F939F93EF93FF9340914A01542F21
:1016D0005695852F90E021E030E001C0220F5A9509
:1016E000EAF740FD27C04091880050918900880F9B
:1016F000991FFC01E353F64F80819181840F951F60
:10170000909389008093880088B1282B28B9809114
:101710004A018F5F877080934A01FF91EF919F91FB
:101720008F915F914F913F912F910F900FBE0F902E
:101730001F9018954091880050918900880F991F3B
:10174000FC01EB53F64F80819181840F951F90939C
:1017500089008093880088B12095282328B9D7CFA5
:1017600090E02AE0629FB00111246C53764F880FFD
:10177000991FFC01E353F64F718360838B53964F9F
:1017800024ED30E3261B370BFC01318320830895C1
:10179000ADECB9E024EC39E011963C932E93E5ECE6
:1017A000F9E080E197E29183808313963C932E9336
:1017B00012979383828315963C932E931497958367
:1017C000848317963C932E9316979783868387B1CD
:1017D0008F6087B9E1E8F0E01082808182608083C9
:1017E000EFE6F0E0808182608083789408958CB188
:1017F0008095881F8827881F0895282F30E08E3015
:1018000010F080E00895F901E85FF34F0C94B50DF6
:10181000250C250C300C300C3B0C400C400C420CC1
:10182000420C420C4D0C160C160C210C83B190E0AE
:101830002950310902C0959587952A95E2F7817064
:10184000089583B18695817008952CB130E0A90187
:1018500002C0559547958A95E2F7CA0181700895AF
:1018600082B390E02F5F3F4F02C0959587952A95F0
:10187000E2F7817008958CB186FB882780F908957E
:1018800023B1E4CF86B190E02250310902C0959592
:1018900087952A95E2F78170089583B18170089544
:1018A000282F30E08E30B0F4F901E75AF34F0C9452
:1018B000B50D7A0C7A0C860C860C940CA60CA60C32
:1018C000980C980C980CB20C6B0C6B0C670C61119B
:1018D00065C0219808952950310981E090E001C048
:1018E000880F2A95EAF794B1662309F43FC0892B43
:1018F00084B9089521E030E001C0220F8A95EAF70B
:101900008DB16623C9F1282B2DB908952F5F3F4F64
:1019100081E090E001C0880F2A95EAF793B366232F
:1019200079F1892B83BB0895662391F16E9A08950E
:101930002250310981E090E001C0880F2A95EAF732
:1019400097B1662309F1892B87B9089521E030E02A
:1019500001C0220F8A95EAF784B16623D9F0282BBB
:1019600024B90895662331F0209A0895809589233B
:1019700084B9089520980895209528232DB90895B5
:101980008095892383BB08958095892387B908951D
:101990006E9808952095282324B90895219A0895D2
:1019A000282F30E08E30B0F4F901E752F34F0C9459
:1019B000B50DFA0CFA0C060D060D140D260D260DAC
:1019C000180D180D180D320DEB0CEB0CE70C611116
:1019D00065C0299808952950310981E090E001C03F
:1019E000880F2A95EAF795B1662309F43FC0892B41
:1019F00085B9089521E030E001C0220F8A95EAF709
:101A00008EB16623C9F1282B2EB908952F5F3F4F61
:101A100081E090E001C0880F2A95EAF794B366232D
:101A200079F1892B84BB0895662391F1769A089504
:101A30002250310981E090E001C0880F2A95EAF731
:101A400098B1662309F1892B88B9089521E030E027
:101A500001C0220F8A95EAF785B16623D9F0282BB9
:101A600025B90895662331F0289A08958095892331
:101A700085B9089528980895209528232EB90895AA
:101A80008095892384BB08958095892388B908951A
:101A9000769808952095282325B90895299A0895C0
:101AA000811104C0613031F0A0980895613021F0B7
:101AB000A1980895A09A0895A19A0895882311F0F5
:101AC000A19A0895A09A0895882311F0A1980895E5
:101AD000A0980895529A83B3836083BB779A0E943B
:101AE0000B070E947F090E94C80B0E942D0B41E04A
:101AF0006AE28CE10E94E1082FEF81EE94E0215030
:101B000080409040E1F700C000000C944B070E9419
:101B10006A0D0E940B070E941D05AA1BBB1B51E109
:101B200007C0AA1FBB1FA617B70710F0A61BB70B4D
:101B3000881F991F5A95A9F780959095BC01CD01F2
:101B4000089597FB072E16F4009407D077FD09D06F
:101B50000E948D0D07FC05D03EF4909581959F4F16
:101B60000895709561957F4F0895EE0FFF1F0590C2
:101B7000F491E02D09945058BB27AA270E94D30D59
:101B80000C94850F0E94770F38F00E947E0F20F092
:101B900039F49F3F19F426F40C944D0F0EF4E095A0
:101BA000E7FB0C94470FE92F0E94960F58F3BA17E2
:101BB000620773078407950720F079F4A6F50C9463
:101BC000B80F0EF4E0950B2EBA2FA02D0B01B90122
:101BD00090010C01CA01A0011124FF27591B99F0A3
:101BE000593F50F4503E68F11A16F040A22F232FAF
:101BF000342F4427585FF3CF469537952795A795FF
:101C0000F0405395C9F77EF41F16BA0B620B730BA5
:101C1000840BBAF09150A1F0FF0FBB1F661F771F16
:101C2000881FC2F70EC0BA0F621F731F841F48F4CB
:101C3000879577956795B795F7959E3F08F0B0CF54
:101C40009395880F08F09927EE0F9795879508953B
:101C50000E943C0E0C94850F0E947E0F58F00E944B
:101C6000770F40F029F45F3F29F00C94470F511192
:101C70000C94B90F0C944D0F0E94960F68F39923A2
:101C8000B1F3552391F3951B550BBB27AA27621778
:101C90007307840738F09F5F5F4F220F331F441F85
:101CA000AA1FA9F335D00E2E3AF0E0E832D09150B9
:101CB0005040E695001CCAF72BD0FE2F29D0660FA6
:101CC000771F881FBB1F261737074807AB07B0E8E9
:101CD00009F0BB0B802DBF01FF2793585F4F3AF0EF
:101CE0009E3F510578F00C94470F0C94B90F5F3F5D
:101CF000E4F3983ED4F3869577956795B795F79575
:101D00009F5FC9F7880F911D9695879597F908955C
:101D1000E1E0660F771F881FBB1F621773078407F8
:101D2000BA0720F0621B730B840BBA0BEE1F88F707
:101D3000E095089529F416F00C94470F0C94B80F11
:101D40000C944D0F0E949E0FA8F39638A0F707F849
:101D50000F92E8942BE33AEA48EB5FE70E944B10BE
:101D60000F920F920F924DB75EB70F920E94011023
:101D7000ECE5F0E00E94500F4F915F91EF91FF91E1
:101D8000E595EE1FFF1F49F0FE57E0684427EE0F70
:101D9000441FFA95E1F74195550B0E94CB0F0F9028
:101DA00007FE0C94BF0F08950E94DB0E6894B111DA
:101DB0000C94B90F08950E949E0F88F09F5798F0D9
:101DC000B92F9927B751B0F0E1F0660F771F881F40
:101DD000991F1AF0BA95C9F714C0B13091F00E945A
:101DE000B80FB1E008950C94B80F672F782F8827AB
:101DF000B85F39F0B93FCCF3869577956795B39581
:101E0000D9F73EF490958095709561957F4F8F4FEF
:101E10009F4F0895E89409C097FB3EF490958095F4
:101E2000709561957F4F8F4F9F4F9923A9F0F92FA0
:101E300096E9BB279395F695879577956795B7951E
:101E4000F111F8CFFAF4BB0F11F460FF1BC06F5F04
:101E50007F4F8F4F9F4F16C0882311F096E911C016
:101E6000772321F09EE8872F762F05C0662371F037
:101E700096E8862F70E060E02AF09A95660F771F4B
:101E8000881FDAF7880F9695879597F9089597F93F
:101E90009F6780E870E060E008959FEF80EC089510
:101EA000DF93CF931F930F93FF92EF92DF927B010B
:101EB0008C01689406C0DA2EEF010E944810FE01E2
:101EC000E894A5912591359145915591A6F3EF019F
:101ED0000E94D30DFE019701A801DA9469F7DF9003
:101EE000EF90FF900F911F91CF91DF910895002403
:101EF0000A941616170618060906089500240A946F
:101F000012161306140605060895092E0394000CF4
:101F100011F4882352F0BB0F40F4BF2B11F460FF83
:101F200004C06F5F7F4F8F4F9F4F089557FD9058AC
:101F3000440F551F59F05F3F71F04795880F97FB8D
:101F4000991F61F09F3F79F0879508951216130647
:101F50001406551FF2CF4695F1DF08C01616170676
:101F60001806991FF1CF86957105610508940895AB
:101F7000E894BB2766277727CB0197F908959B0143
:101F8000AC0160E070E080E89FE30C94280E0C94B4
:101F9000470F0C94A2100E949E0FD8F39923C9F307
:101FA000940F511DA3F39150504094F059F08823A1
:101FB00032F0660F771F881F91505040C1F79E3F47
:101FC00051052CF7880F911D9695879597F90895DF
:101FD0005F3FACF0983E9CF0BB2786957795679560
:101FE000B79508F4B1609395C1F7BB0F58F711F49A
:101FF00060FFE8CF6F5F7F4F8F4F9F4FE3CF0C9411
:10200000B90FFA01DC01AA0FBB1F9B01AC01BF573E
:1020100028F4222733274427507820C0B75190F462
:10202000AB2F0024469537952795011CA395D2F335
:10203000002071F0220F331F441FB395DAF30ED046
:102040000C94BB0D61307105A0E88A07B94630F4E5
:102050009B01AC016627772788279078309621F07E
:10206000208331834283538308950E9448100C9447
:10207000850F0E94770F38F00E947E0F20F0952385
:1020800011F00C94470F0C944D0F11240C94B90FC0
:102090000E94960F70F3959FC1F3950F50E0551F66
:1020A000629FF001729FBB27F00DB11D639FAA27AD
:1020B000F00DB11DAA1F649F6627B00DA11D661FFC
:1020C000829F2227B00DA11D621F739FB00DA11D1D
:1020D000621F839FA00D611D221F749F3327A00DD7
:1020E000611D231F849F600D211D822F762F6A2F73
:1020F00011249F5750409AF0F1F088234AF0EE0FD8
:10210000FF1FBB1F661F771F881F91505040A9F704
:102110009E3F510580F00C94470F0C94B90F5F3F20
:10212000E4F3983ED4F3869577956795B795F79540
:10213000E7959F5FC1F7FE2B880F911D96958795B8
:1021400097F908959F3F31F0915020F48795779546
:102150006795B795880F911D9695879597F908957E
:102160008F929F92AF92BF92CF92DF92EF92FF92A7
:10217000CF93DF93EC01688179818A819B8161151E
:1021800071058105910521F464E279ED8BE597E015
:102190002DE133EF41E050E00E94BA1349015A01AA
:1021A0009B01AC01A7EAB1E40E94D9136B017C0149
:1021B000ACEEB4EFA50194010E94E713DC01CB0162
:1021C0008C0D9D1DAE1DBF1DB7FF03C00197A1095A
:1021D000B04888839983AA83BB839F77DF91CF918F
:1021E000FF90EF90DF90CF90BF90AF909F908F9037
:1021F00008950E94B010089580E091E00E94B01010
:102200000895B0E0A0E08093000190930101A093B5
:102210000201B09303010895AEE0B0E0E2E1F1E124
:102220000C94FA130D891E898F89988D26E02C83D2
:102230001A83098397FF02C080E090E801979E838C
:102240008D83AE01455E5F4F698D7A8DCE0101961B
:102250000E943C114D815E8157FD0AC02F81388557
:10226000421753070CF49A01020F131FF801108252
:102270002E96E4E00C941614ABE0B0E0E2E4F1E159
:102280000C94EC137C013B018A01FC01178216823D
:10229000838181FFC8C1CE0101965C01F701938162
:1022A000F30193FD859193FF81913F01882309F408
:1022B00053C1853239F493FD859193FF81913F019C
:1022C000853229F4B70190E00E942C13E7CF912CBE
:1022D000212C312CFFE1F31538F08B3211F190F401
:1022E000803209F1833229F137FC3CC020ED280F00
:1022F0002A3050F536FE20C08AE0989E200D112429
:10230000922E06C08D3291F0803371F7689430F8C8
:10231000F30193FD859193FF81913F018111DACF04
:1023200021C0689431F8689432F8F2CF689433F899
:10233000EFCF689434F8ECCFEAE02E9E200D112404
:10234000222E689435F8E4CF8E3229F436FC04C18D
:10235000689436F8DDCF8C3619F4689437F8D8CF06
:102360008836B1F2982F9F7D95549330E0F08336F4
:10237000A1F18337C1F1833509F063C02801F2E090
:102380004F0E511CF801C080D180692D70E036FCE1
:1023900002C06FEF7FEFC6010E9416134C016894D4
:1023A00037F882010AC00C5F1F4FFFE3F9838824CE
:1023B0008394912C6501E89437F833FE2DC0522C9C
:1023C0008114910471F5552009F468CFB70180E2BA
:1023D00090E00E942C135A94F6CFF80180818983F3
:1023E0000E5F1F4FE4CF2801F2E04F0E511CF801A1
:1023F000C080D180692D70E036FC02C06FEF7FEFA6
:10240000C6010E9421134C018201D5CFB70180E2A1
:1024100090E00E942C132A942814190409F0B0F7B4
:10242000CECFF60137FC859137FE81916F01B70160
:1024300090E00E942C1351105A94F1E08F1A9108E9
:10244000BFCF843619F0893609F077C0F80137FE1E
:102450006BC060817181828193810C5F1F4FF32D6E
:10246000FF763F2E97FF09C09095809570956195F6
:102470007F4F8F4F9F4F689437F82AE030E0A501D7
:102480000E945C13C82ECA188C2C432C36FE0CC03C
:10249000E89440F8C91440F434FE05C032FC03C08F
:1024A000F32DFE7E4F2E892C44FE95C0FE01EC0DCF
:1024B000F11D8081803309F087C0242D297E422EB2
:1024C000842D8870582E43FC95C040FE8FC09C2CF4
:1024D000821418F42C0C922C981844FE91C0B70169
:1024E00080E390E00E942C1342FE09C088E790E050
:1024F00041FE02C088E590E0B7010E942C13C91488
:1025000008F48AC0CA94D12C9FEFC91AD90ACA0C00
:10251000DB1CF60182916F01B70190E00E942C1341
:10252000AC14BD04B1F74FCF60817181072E000C50
:10253000880B990B0E5F1F4F92CFD32CE894D4F8E1
:102540002AE030E0853739F1232D297FD22E8F36CE
:1025500001F148F48835A9F0F701868197812B961F
:10256000E2E10C940814803749F08837A9F7D4FECB
:1025700002C06894D2F820E130E00DC06894D4F82D
:10258000F6CF34FE03C0822F8660D82E20E132E0E1
:1025900002C028E030E0F801D7FE0FC060817181F1
:1025A000828193810C5F1F4FA5010E945C13C82E8E
:1025B000CA183D2CE89437F867CF6081718190E0AC
:1025C00080E00E5F1F4FF0CF42FC02C0839478CFB3
:1025D0008394839475CF842D867809F471CFF6CFD8
:1025E000B70180E290E00E942C1383948214C0F320
:1025F000512C73CF522C5818821408F46ECFF8CF98
:10260000842D867809F47BCF8BE241FE80E247FC83
:102610008DE2B70190E071CFB70180E390E00E94B6
:102620002C139A946CCF8FEF9FEF99CFFC010590FC
:10263000615070400110D8F7809590958E0F9F1FC4
:102640000895FC016150704001900110D8F7809509
:1026500090958E0F9F1F08950F931F93CF93DF9335
:10266000182F092FEB018B8181FD09C01FEF0FEFA0
:10267000812F902FDF91CF911F910F91089582FFAD
:1026800014C02E813F818C819D81281739073CF42D
:10269000E881F981CF0101969983888310838E8127
:1026A0009F8101969F838E83E3CFE885F985812FF3
:1026B0000995892BA1F3DACFFA01AA27283051F125
:1026C000203181F1E8946F936E7F6E5F7F4F8F4F63
:1026D0009F4FAF4FB1E03ED0B4E03CD0670F781FC2
:1026E000891F9A1FA11D680F791F8A1F911DA11DA7
:1026F0006A0F711D811D911DA11D20D009F46894E0
:102700003F912AE0269F11243019305D3193DEF687
:10271000CF010895462F4770405D4193B3E00FD03D
:10272000C9F7F6CF462F4F70405D4A3318F0495D28
:1027300031FD4052419302D0A9F7EACFB4E0A6950B
:102740009795879577956795BA95C9F7009761052D
:10275000710508959B01AC010A2E06945795479583
:1027600037952795BA95C9F7620F731F841F951F78
:10277000A01D0895052E97FB1EF400940E94D1130E
:1027800057FD07D00E94231407FC03D04EF40C948D
:10279000D11350954095309521953F4F4F4F5F4F46
:1027A000089590958095709561957F4F8F4F9F4FBD
:1027B00008950E944514A59F900DB49F900DA49F6D
:1027C000800D911D11240895B7FF0C94D9130E9418
:1027D000D913821B930B08952F923F924F925F92D1
:1027E0006F927F928F929F92AF92BF92CF92DF9221
:1027F000EF92FF920F931F93CF93DF93CDB7DEB786
:10280000CA1BDB0B0FB6F894DEBF0FBECDBF099419
:102810002A88398848885F846E847D848C849B8470
:10282000AA84B984C884DF80EE80FD800C811B817E
:10283000AA81B981CE0FD11D0FB6F894DEBF0FBEAD
:10284000CDBFED010895A1E21A2EAA1BBB1BFD010D
:102850000DC0AA1FBB1FEE1FFF1FA217B307E4077F
:10286000F50720F0A21BB30BE40BF50B661F771FD7
:10287000881F991F1A9469F76095709580959095B7
:102880009B01AC01BD01CF010895A29FB001B39F90
:10289000C001A39F700D811D1124911DB29F700D69
:0C28A000811D1124911D0895F894FFCFB4
:1028AC000100000070726F706F727400446174618B
:1028BC002043617000547261696E696E67004E4E00
:1028CC0020466F6C6C6F770025643A256400616458
:1028DC0064724E41434B0077725F4E41434B007222
:0828EC006561644E41434B009D
:00000001FF
